{
  "address": "0x5771445e2C919AabBE5BA389fD909D41873bE7a9",
  "abi": [
    {
      "inputs": [
        {
          "internalType": "string",
          "name": "merchantName",
          "type": "string"
        },
        {
          "internalType": "string",
          "name": "merchantSymbol",
          "type": "string"
        }
      ],
      "stateMutability": "nonpayable",
      "type": "constructor"
    },
    {
      "anonymous": false,
      "inputs": [
        {
          "indexed": true,
          "internalType": "address",
          "name": "owner",
          "type": "address"
        },
        {
          "indexed": true,
          "internalType": "address",
          "name": "approved",
          "type": "address"
        },
        {
          "indexed": true,
          "internalType": "uint256",
          "name": "tokenId",
          "type": "uint256"
        }
      ],
      "name": "Approval",
      "type": "event"
    },
    {
      "anonymous": false,
      "inputs": [
        {
          "indexed": true,
          "internalType": "address",
          "name": "owner",
          "type": "address"
        },
        {
          "indexed": true,
          "internalType": "address",
          "name": "operator",
          "type": "address"
        },
        {
          "indexed": false,
          "internalType": "bool",
          "name": "approved",
          "type": "bool"
        }
      ],
      "name": "ApprovalForAll",
      "type": "event"
    },
    {
      "anonymous": false,
      "inputs": [
        {
          "indexed": true,
          "internalType": "address",
          "name": "previousOwner",
          "type": "address"
        },
        {
          "indexed": true,
          "internalType": "address",
          "name": "newOwner",
          "type": "address"
        }
      ],
      "name": "OwnershipTransferred",
      "type": "event"
    },
    {
      "anonymous": false,
      "inputs": [
        {
          "indexed": true,
          "internalType": "address",
          "name": "from",
          "type": "address"
        },
        {
          "indexed": true,
          "internalType": "address",
          "name": "to",
          "type": "address"
        },
        {
          "indexed": true,
          "internalType": "uint256",
          "name": "tokenId",
          "type": "uint256"
        }
      ],
      "name": "Transfer",
      "type": "event"
    },
    {
      "inputs": [],
      "name": "_burnAddress",
      "outputs": [
        {
          "internalType": "address",
          "name": "",
          "type": "address"
        }
      ],
      "stateMutability": "view",
      "type": "function"
    },
    {
      "inputs": [
        {
          "internalType": "address",
          "name": "_address",
          "type": "address"
        },
        {
          "internalType": "string",
          "name": "_type",
          "type": "string"
        }
      ],
      "name": "addParty",
      "outputs": [],
      "stateMutability": "nonpayable",
      "type": "function"
    },
    {
      "inputs": [
        {
          "internalType": "string",
          "name": "productName",
          "type": "string"
        }
      ],
      "name": "addProducts",
      "outputs": [],
      "stateMutability": "nonpayable",
      "type": "function"
    },
    {
      "inputs": [
        {
          "internalType": "address",
          "name": "to",
          "type": "address"
        },
        {
          "internalType": "uint256",
          "name": "tokenId",
          "type": "uint256"
        }
      ],
      "name": "approve",
      "outputs": [],
      "stateMutability": "nonpayable",
      "type": "function"
    },
    {
      "inputs": [
        {
          "internalType": "address",
          "name": "owner",
          "type": "address"
        }
      ],
      "name": "balanceOf",
      "outputs": [
        {
          "internalType": "uint256",
          "name": "",
          "type": "uint256"
        }
      ],
      "stateMutability": "view",
      "type": "function"
    },
    {
      "inputs": [
        {
          "internalType": "address",
          "name": "_newAddress",
          "type": "address"
        }
      ],
      "name": "changeBurnAddress",
      "outputs": [],
      "stateMutability": "nonpayable",
      "type": "function"
    },
    {
      "inputs": [
        {
          "internalType": "address",
          "name": "_nextParty",
          "type": "address"
        },
        {
          "internalType": "string",
          "name": "tokenUri",
          "type": "string"
        }
      ],
      "name": "createTransaction",
      "outputs": [
        {
          "internalType": "uint256",
          "name": "tokenID",
          "type": "uint256"
        }
      ],
      "stateMutability": "nonpayable",
      "type": "function"
    },
    {
      "inputs": [
        {
          "internalType": "uint256",
          "name": "tokenId",
          "type": "uint256"
        }
      ],
      "name": "getApproved",
      "outputs": [
        {
          "internalType": "address",
          "name": "",
          "type": "address"
        }
      ],
      "stateMutability": "view",
      "type": "function"
    },
    {
      "inputs": [
        {
          "internalType": "uint256",
          "name": "tokenID",
          "type": "uint256"
        }
      ],
      "name": "holderBurn",
      "outputs": [
        {
          "internalType": "string",
          "name": "message",
          "type": "string"
        }
      ],
      "stateMutability": "nonpayable",
      "type": "function"
    },
    {
      "inputs": [
        {
          "internalType": "address",
          "name": "_nextParty",
          "type": "address"
        },
        {
          "internalType": "uint256",
          "name": "tokenID",
          "type": "uint256"
        }
      ],
      "name": "holderSign",
      "outputs": [
        {
          "internalType": "string",
          "name": "message",
          "type": "string"
        }
      ],
      "stateMutability": "nonpayable",
      "type": "function"
    },
    {
      "inputs": [
        {
          "internalType": "address",
          "name": "owner",
          "type": "address"
        },
        {
          "internalType": "address",
          "name": "operator",
          "type": "address"
        }
      ],
      "name": "isApprovedForAll",
      "outputs": [
        {
          "internalType": "bool",
          "name": "",
          "type": "bool"
        }
      ],
      "stateMutability": "view",
      "type": "function"
    },
    {
      "inputs": [
        {
          "internalType": "address",
          "name": "_to",
          "type": "address"
        }
      ],
      "name": "mint",
      "outputs": [],
      "stateMutability": "nonpayable",
      "type": "function"
    },
    {
      "inputs": [],
      "name": "name",
      "outputs": [
        {
          "internalType": "string",
          "name": "",
          "type": "string"
        }
      ],
      "stateMutability": "view",
      "type": "function"
    },
    {
      "inputs": [],
      "name": "owner",
      "outputs": [
        {
          "internalType": "address",
          "name": "",
          "type": "address"
        }
      ],
      "stateMutability": "view",
      "type": "function"
    },
    {
      "inputs": [
        {
          "internalType": "uint256",
          "name": "tokenId",
          "type": "uint256"
        }
      ],
      "name": "ownerOf",
      "outputs": [
        {
          "internalType": "address",
          "name": "",
          "type": "address"
        }
      ],
      "stateMutability": "view",
      "type": "function"
    },
    {
      "inputs": [],
      "name": "renounceOwnership",
      "outputs": [],
      "stateMutability": "nonpayable",
      "type": "function"
    },
    {
      "inputs": [
        {
          "internalType": "address",
          "name": "from",
          "type": "address"
        },
        {
          "internalType": "address",
          "name": "to",
          "type": "address"
        },
        {
          "internalType": "uint256",
          "name": "tokenId",
          "type": "uint256"
        }
      ],
      "name": "safeTransferFrom",
      "outputs": [],
      "stateMutability": "nonpayable",
      "type": "function"
    },
    {
      "inputs": [
        {
          "internalType": "address",
          "name": "from",
          "type": "address"
        },
        {
          "internalType": "address",
          "name": "to",
          "type": "address"
        },
        {
          "internalType": "uint256",
          "name": "tokenId",
          "type": "uint256"
        },
        {
          "internalType": "bytes",
          "name": "_data",
          "type": "bytes"
        }
      ],
      "name": "safeTransferFrom",
      "outputs": [],
      "stateMutability": "nonpayable",
      "type": "function"
    },
    {
      "inputs": [
        {
          "internalType": "address",
          "name": "operator",
          "type": "address"
        },
        {
          "internalType": "bool",
          "name": "approved",
          "type": "bool"
        }
      ],
      "name": "setApprovalForAll",
      "outputs": [],
      "stateMutability": "nonpayable",
      "type": "function"
    },
    {
      "inputs": [
        {
          "internalType": "bytes4",
          "name": "interfaceId",
          "type": "bytes4"
        }
      ],
      "name": "supportsInterface",
      "outputs": [
        {
          "internalType": "bool",
          "name": "",
          "type": "bool"
        }
      ],
      "stateMutability": "view",
      "type": "function"
    },
    {
      "inputs": [],
      "name": "symbol",
      "outputs": [
        {
          "internalType": "string",
          "name": "",
          "type": "string"
        }
      ],
      "stateMutability": "view",
      "type": "function"
    },
    {
      "inputs": [
        {
          "internalType": "uint256",
          "name": "index",
          "type": "uint256"
        }
      ],
      "name": "tokenByIndex",
      "outputs": [
        {
          "internalType": "uint256",
          "name": "",
          "type": "uint256"
        }
      ],
      "stateMutability": "view",
      "type": "function"
    },
    {
      "inputs": [
        {
          "internalType": "address",
          "name": "owner",
          "type": "address"
        },
        {
          "internalType": "uint256",
          "name": "index",
          "type": "uint256"
        }
      ],
      "name": "tokenOfOwnerByIndex",
      "outputs": [
        {
          "internalType": "uint256",
          "name": "",
          "type": "uint256"
        }
      ],
      "stateMutability": "view",
      "type": "function"
    },
    {
      "inputs": [
        {
          "internalType": "uint256",
          "name": "tokenId",
          "type": "uint256"
        }
      ],
      "name": "tokenURI",
      "outputs": [
        {
          "internalType": "string",
          "name": "",
          "type": "string"
        }
      ],
      "stateMutability": "view",
      "type": "function"
    },
    {
      "inputs": [],
      "name": "totalSupply",
      "outputs": [
        {
          "internalType": "uint256",
          "name": "",
          "type": "uint256"
        }
      ],
      "stateMutability": "view",
      "type": "function"
    },
    {
      "inputs": [
        {
          "internalType": "address",
          "name": "from",
          "type": "address"
        },
        {
          "internalType": "address",
          "name": "to",
          "type": "address"
        },
        {
          "internalType": "uint256",
          "name": "tokenId",
          "type": "uint256"
        }
      ],
      "name": "transferFrom",
      "outputs": [],
      "stateMutability": "nonpayable",
      "type": "function"
    },
    {
      "inputs": [
        {
          "internalType": "address",
          "name": "newOwner",
          "type": "address"
        }
      ],
      "name": "transferOwnership",
      "outputs": [],
      "stateMutability": "nonpayable",
      "type": "function"
    }
  ],
  "transactionHash": "0x44a734bce2104a92acd1f9a97926adfec3a31b740236293c459892a6e26dbe51",
  "args": [
    "SuperMercat",
    "SUPER"
  ],
  "numDeployments": 1,
  "solcInputHash": "c22005b0ada7af5357f0ea54c9daf1ec",
  "bytecode": "0x6080604052738d891cffaec8dd6e571b717872db8095541110b2600c60006101000a81548173ffffffffffffffffffffffffffffffffffffffff021916908373ffffffffffffffffffffffffffffffffffffffff1602179055506000600f5560006010553480156200007057600080fd5b506040516200469338038062004693833981810160405281019062000096919062000374565b81818160009080519060200190620000b092919062000252565b508060019080519060200190620000c992919062000252565b505050620000ec620000e06200018460201b60201c565b6200018c60201b60201c565b60008251141562000134576040517f08c379a00000000000000000000000000000000000000000000000000000000081526004016200012b9062000457565b60405180910390fd5b6000815114156200017c576040517f08c379a0000000000000000000000000000000000000000000000000000000008152600401620001739062000435565b60405180910390fd5b50506200064c565b600033905090565b6000600b60009054906101000a900473ffffffffffffffffffffffffffffffffffffffff16905081600b60006101000a81548173ffffffffffffffffffffffffffffffffffffffff021916908373ffffffffffffffffffffffffffffffffffffffff1602179055508173ffffffffffffffffffffffffffffffffffffffff168173ffffffffffffffffffffffffffffffffffffffff167f8be0079c531659141344cd1fd0a4f28419497f9722a3daafe3b4186f6b6457e060405160405180910390a35050565b82805462000260906200051f565b90600052602060002090601f016020900481019282620002845760008555620002d0565b82601f106200029f57805160ff1916838001178555620002d0565b82800160010185558215620002d0579182015b82811115620002cf578251825591602001919060010190620002b2565b5b509050620002df9190620002e3565b5090565b5b80821115620002fe576000816000905550600101620002e4565b5090565b6000620003196200031384620004a2565b62000479565b9050828152602081018484840111156200033257600080fd5b6200033f848285620004e9565b509392505050565b600082601f8301126200035957600080fd5b81516200036b84826020860162000302565b91505092915050565b600080604083850312156200038857600080fd5b600083015167ffffffffffffffff811115620003a357600080fd5b620003b18582860162000347565b925050602083015167ffffffffffffffff811115620003cf57600080fd5b620003dd8582860162000347565b9150509250929050565b6000620003f6602083620004d8565b91506200040382620005fa565b602082019050919050565b60006200041d601e83620004d8565b91506200042a8262000623565b602082019050919050565b600060208201905081810360008301526200045081620003e7565b9050919050565b6000602082019050818103600083015262000472816200040e565b9050919050565b60006200048562000498565b905062000493828262000555565b919050565b6000604051905090565b600067ffffffffffffffff821115620004c057620004bf620005ba565b5b620004cb82620005e9565b9050602081019050919050565b600082825260208201905092915050565b60005b8381101562000509578082015181840152602081019050620004ec565b8381111562000519576000848401525b50505050565b600060028204905060018216806200053857607f821691505b602082108114156200054f576200054e6200058b565b5b50919050565b6200056082620005e9565b810181811067ffffffffffffffff82111715620005825762000581620005ba565b5b80604052505050565b7f4e487b7100000000000000000000000000000000000000000000000000000000600052602260045260246000fd5b7f4e487b7100000000000000000000000000000000000000000000000000000000600052604160045260246000fd5b6000601f19601f8301169050919050565b7f4d65726368616e742073796d626f6c2063616e6e6f7420626520626c616e6b21600082015250565b7f4d65726368616e74206e616d652063616e6e6f7420626520626c616e6b210000600082015250565b614037806200065c6000396000f3fe608060405234801561001057600080fd5b50600436106101a95760003560e01c8063715018a6116100f9578063bd3900c011610097578063e985e9c511610071578063e985e9c5146104de578063eb2fadf01461050e578063ee3d17061461053e578063f2fde38b1461055a576101a9565b8063bd3900c014610460578063c87b56dd1461047e578063d5b21447146104ae576101a9565b806395d89b41116100d357806395d89b41146103ee578063a22cb4651461040c578063aaf23b2d14610428578063b88d4fde14610444576101a9565b8063715018a6146103965780638da5cb5b146103a05780638e2f2ab7146103be576101a9565b806323b872dd116101665780634f6ccce7116101405780634f6ccce7146102ea5780636352211e1461031a5780636a6278421461034a57806370a0823114610366576101a9565b806323b872dd146102825780632f745c591461029e57806342842e0e146102ce576101a9565b806301ffc9a7146101ae57806306fdde03146101de578063081812fc146101fc578063095ea7b31461022c57806318160ddd1461024857806321405cd114610266575b600080fd5b6101c860048036038101906101c39190612d39565b610576565b6040516101d591906132c5565b60405180910390f35b6101e6610588565b6040516101f391906132e0565b60405180910390f35b61021660048036038101906102119190612dcc565b61061a565b604051610223919061325e565b60405180910390f35b61024660048036038101906102419190612cfd565b61069f565b005b6102506107b7565b60405161025d91906135a2565b60405180910390f35b610280600480360381019061027b9190612ca9565b6107c4565b005b61029c60048036038101906102979190612ba3565b610898565b005b6102b860048036038101906102b39190612cfd565b6108f8565b6040516102c591906135a2565b60405180910390f35b6102e860048036038101906102e39190612ba3565b61099d565b005b61030460048036038101906102ff9190612dcc565b6109bd565b60405161031191906135a2565b60405180910390f35b610334600480360381019061032f9190612dcc565b610a54565b604051610341919061325e565b60405180910390f35b610364600480360381019061035f9190612b3e565b610b06565b005b610380600480360381019061037b9190612b3e565b610b14565b60405161038d91906135a2565b60405180910390f35b61039e610bcc565b005b6103a8610c54565b6040516103b5919061325e565b60405180910390f35b6103d860048036038101906103d39190612dcc565b610c7e565b6040516103e591906132e0565b60405180910390f35b6103f6610d68565b60405161040391906132e0565b60405180910390f35b61042660048036038101906104219190612c6d565b610dfa565b005b610442600480360381019061043d9190612d8b565b610e10565b005b61045e60048036038101906104599190612bf2565b610efd565b005b610468610f5f565b604051610475919061325e565b60405180910390f35b61049860048036038101906104939190612dcc565b610f85565b6040516104a591906132e0565b60405180910390f35b6104c860048036038101906104c39190612cfd565b610f97565b6040516104d591906132e0565b60405180910390f35b6104f860048036038101906104f39190612b67565b611060565b60405161050591906132c5565b60405180910390f35b61052860048036038101906105239190612ca9565b6110f4565b60405161053591906135a2565b60405180910390f35b61055860048036038101906105539190612b3e565b6111ff565b005b610574600480360381019061056f9190612b3e565b6112bf565b005b6000610581826113b7565b9050919050565b60606000805461059790613818565b80601f01602080910402602001604051908101604052809291908181526020018280546105c390613818565b80156106105780601f106105e557610100808354040283529160200191610610565b820191906000526020600020905b8154815290600101906020018083116105f357829003601f168201915b5050505050905090565b600061062582611431565b610664576040517f08c379a000000000000000000000000000000000000000000000000000000000815260040161065b906134e2565b60405180910390fd5b6004600083815260200190815260200160002060009054906101000a900473ffffffffffffffffffffffffffffffffffffffff169050919050565b60006106aa82610a54565b90508073ffffffffffffffffffffffffffffffffffffffff168373ffffffffffffffffffffffffffffffffffffffff16141561071b576040517f08c379a000000000000000000000000000000000000000000000000000000000815260040161071290613542565b60405180910390fd5b8073ffffffffffffffffffffffffffffffffffffffff1661073a61149d565b73ffffffffffffffffffffffffffffffffffffffff16148061076957506107688161076361149d565b611060565b5b6107a8576040517f08c379a000000000000000000000000000000000000000000000000000000000815260040161079f90613402565b60405180910390fd5b6107b283836114a5565b505050565b6000600980549050905090565b6107cc61149d565b73ffffffffffffffffffffffffffffffffffffffff166107ea610c54565b73ffffffffffffffffffffffffffffffffffffffff1614610840576040517f08c379a000000000000000000000000000000000000000000000000000000000815260040161083790613502565b60405180910390fd5b80600d60008473ffffffffffffffffffffffffffffffffffffffff1673ffffffffffffffffffffffffffffffffffffffff1681526020019081526020016000209080519060200190610893929190612962565b505050565b6108a96108a361149d565b8261155e565b6108e8576040517f08c379a00000000000000000000000000000000000000000000000000000000081526004016108df90613562565b60405180910390fd5b6108f383838361163c565b505050565b600061090383610b14565b8210610944576040517f08c379a000000000000000000000000000000000000000000000000000000000815260040161093b90613302565b60405180910390fd5b600760008473ffffffffffffffffffffffffffffffffffffffff1673ffffffffffffffffffffffffffffffffffffffff168152602001908152602001600020600083815260200190815260200160002054905092915050565b6109b883838360405180602001604052806000815250610efd565b505050565b60006109c76107b7565b8210610a08576040517f08c379a00000000000000000000000000000000000000000000000000000000081526004016109ff90613582565b60405180910390fd5b60098281548110610a42577f4e487b7100000000000000000000000000000000000000000000000000000000600052603260045260246000fd5b90600052602060002001549050919050565b6000806002600084815260200190815260200160002060009054906101000a900473ffffffffffffffffffffffffffffffffffffffff169050600073ffffffffffffffffffffffffffffffffffffffff168173ffffffffffffffffffffffffffffffffffffffff161415610afd576040517f08c379a0000000000000000000000000000000000000000000000000000000008152600401610af490613462565b60405180910390fd5b80915050919050565b610b118160016118a3565b50565b60008073ffffffffffffffffffffffffffffffffffffffff168273ffffffffffffffffffffffffffffffffffffffff161415610b85576040517f08c379a0000000000000000000000000000000000000000000000000000000008152600401610b7c90613442565b60405180910390fd5b600360008373ffffffffffffffffffffffffffffffffffffffff1673ffffffffffffffffffffffffffffffffffffffff168152602001908152602001600020549050919050565b610bd461149d565b73ffffffffffffffffffffffffffffffffffffffff16610bf2610c54565b73ffffffffffffffffffffffffffffffffffffffff1614610c48576040517f08c379a0000000000000000000000000000000000000000000000000000000008152600401610c3f90613502565b60405180910390fd5b610c5260006118c1565b565b6000600b60009054906101000a900473ffffffffffffffffffffffffffffffffffffffff16905090565b60606000610c8b33610b14565b905060005b81811015610d285783610ca333836108f8565b1415610d1557610cd633600c60009054906101000a900473ffffffffffffffffffffffffffffffffffffffff168661099d565b6040518060400160405280601481526020017f5375636365737366756c6c79206275726e65642100000000000000000000000081525092505050610d63565b8080610d209061387b565b915050610c90565b506040518060400160405280601081526020017f546f6b656e206e6f7420666f756e6421000000000000000000000000000000008152509150505b919050565b606060018054610d7790613818565b80601f0160208091040260200160405190810160405280929190818152602001828054610da390613818565b8015610df05780601f10610dc557610100808354040283529160200191610df0565b820191906000526020600020905b815481529060010190602001808311610dd357829003601f168201915b5050505050905090565b610e0c610e0561149d565b8383611987565b5050565b610e1861149d565b73ffffffffffffffffffffffffffffffffffffffff16610e36610c54565b73ffffffffffffffffffffffffffffffffffffffff1614610e8c576040517f08c379a0000000000000000000000000000000000000000000000000000000008152600401610e8390613502565b60405180910390fd5b6040518060400160405280600f54815260200182815250600e6000600f548152602001908152602001600020600082015181600001556020820151816001019080519060200190610ede929190612962565b50905050600f6000815480929190610ef59061387b565b919050555050565b610f0e610f0861149d565b8361155e565b610f4d576040517f08c379a0000000000000000000000000000000000000000000000000000000008152600401610f4490613562565b60405180910390fd5b610f5984848484611af4565b50505050565b600c60009054906101000a900473ffffffffffffffffffffffffffffffffffffffff1681565b6060610f9082611b50565b9050919050565b60606000610fa433610b14565b905060005b8181101561101f5783610fbc33836108f8565b141561100c57610fcd33868661099d565b6040518060400160405280601981526020017f5375636365737366756c6c79207472616e7366657272656421000000000000008152509250505061105a565b80806110179061387b565b915050610fa9565b506040518060400160405280601081526020017f546f6b656e206e6f7420666f756e6421000000000000000000000000000000008152509150505b92915050565b6000600560008473ffffffffffffffffffffffffffffffffffffffff1673ffffffffffffffffffffffffffffffffffffffff16815260200190815260200160002060008373ffffffffffffffffffffffffffffffffffffffff1673ffffffffffffffffffffffffffffffffffffffff16815260200190815260200160002060009054906101000a900460ff16905092915050565b60006040518060400160405280600a81526020017f50726f64756374696f6e0000000000000000000000000000000000000000000081525080519060200120600d60003373ffffffffffffffffffffffffffffffffffffffff1673ffffffffffffffffffffffffffffffffffffffff16815260200190815260200160002060405161117f9190613223565b6040518091039020146111c7576040517f08c379a00000000000000000000000000000000000000000000000000000000081526004016111be90613422565b60405180910390fd5b6111d083610b06565b601060008154809291906111e39061387b565b91905055506111f460105483611ca2565b601054905092915050565b61120761149d565b73ffffffffffffffffffffffffffffffffffffffff16611225610c54565b73ffffffffffffffffffffffffffffffffffffffff161461127b576040517f08c379a000000000000000000000000000000000000000000000000000000000815260040161127290613502565b60405180910390fd5b80600c60006101000a81548173ffffffffffffffffffffffffffffffffffffffff021916908373ffffffffffffffffffffffffffffffffffffffff16021790555050565b6112c761149d565b73ffffffffffffffffffffffffffffffffffffffff166112e5610c54565b73ffffffffffffffffffffffffffffffffffffffff161461133b576040517f08c379a000000000000000000000000000000000000000000000000000000000815260040161133290613502565b60405180910390fd5b600073ffffffffffffffffffffffffffffffffffffffff168173ffffffffffffffffffffffffffffffffffffffff1614156113ab576040517f08c379a00000000000000000000000000000000000000000000000000000000081526004016113a290613342565b60405180910390fd5b6113b4816118c1565b50565b60007f780e9d63000000000000000000000000000000000000000000000000000000007bffffffffffffffffffffffffffffffffffffffffffffffffffffffff1916827bffffffffffffffffffffffffffffffffffffffffffffffffffffffff1916148061142a575061142982611d16565b5b9050919050565b60008073ffffffffffffffffffffffffffffffffffffffff166002600084815260200190815260200160002060009054906101000a900473ffffffffffffffffffffffffffffffffffffffff1673ffffffffffffffffffffffffffffffffffffffff1614159050919050565b600033905090565b816004600083815260200190815260200160002060006101000a81548173ffffffffffffffffffffffffffffffffffffffff021916908373ffffffffffffffffffffffffffffffffffffffff160217905550808273ffffffffffffffffffffffffffffffffffffffff1661151883610a54565b73ffffffffffffffffffffffffffffffffffffffff167f8c5be1e5ebec7d5bd14f71427d1e84f3dd0314c0f7b2291e5b200ac8c7c3b92560405160405180910390a45050565b600061156982611431565b6115a8576040517f08c379a000000000000000000000000000000000000000000000000000000000815260040161159f906133e2565b60405180910390fd5b60006115b383610a54565b90508073ffffffffffffffffffffffffffffffffffffffff168473ffffffffffffffffffffffffffffffffffffffff16148061162257508373ffffffffffffffffffffffffffffffffffffffff1661160a8461061a565b73ffffffffffffffffffffffffffffffffffffffff16145b8061163357506116328185611060565b5b91505092915050565b8273ffffffffffffffffffffffffffffffffffffffff1661165c82610a54565b73ffffffffffffffffffffffffffffffffffffffff16146116b2576040517f08c379a00000000000000000000000000000000000000000000000000000000081526004016116a990613362565b60405180910390fd5b600073ffffffffffffffffffffffffffffffffffffffff168273ffffffffffffffffffffffffffffffffffffffff161415611722576040517f08c379a0000000000000000000000000000000000000000000000000000000008152600401611719906133a2565b60405180910390fd5b61172d838383611df8565b6117386000826114a5565b6001600360008573ffffffffffffffffffffffffffffffffffffffff1673ffffffffffffffffffffffffffffffffffffffff1681526020019081526020016000206000828254611788919061372e565b925050819055506001600360008473ffffffffffffffffffffffffffffffffffffffff1673ffffffffffffffffffffffffffffffffffffffff16815260200190815260200160002060008282546117df91906136a7565b92505081905550816002600083815260200190815260200160002060006101000a81548173ffffffffffffffffffffffffffffffffffffffff021916908373ffffffffffffffffffffffffffffffffffffffff160217905550808273ffffffffffffffffffffffffffffffffffffffff168473ffffffffffffffffffffffffffffffffffffffff167fddf252ad1be2c89b69c2b068fc378daa952ba7f163c4a11628f55a4df523b3ef60405160405180910390a461189e838383611e08565b505050565b6118bd828260405180602001604052806000815250611e0d565b5050565b6000600b60009054906101000a900473ffffffffffffffffffffffffffffffffffffffff16905081600b60006101000a81548173ffffffffffffffffffffffffffffffffffffffff021916908373ffffffffffffffffffffffffffffffffffffffff1602179055508173ffffffffffffffffffffffffffffffffffffffff168173ffffffffffffffffffffffffffffffffffffffff167f8be0079c531659141344cd1fd0a4f28419497f9722a3daafe3b4186f6b6457e060405160405180910390a35050565b8173ffffffffffffffffffffffffffffffffffffffff168373ffffffffffffffffffffffffffffffffffffffff1614156119f6576040517f08c379a00000000000000000000000000000000000000000000000000000000081526004016119ed906133c2565b60405180910390fd5b80600560008573ffffffffffffffffffffffffffffffffffffffff1673ffffffffffffffffffffffffffffffffffffffff16815260200190815260200160002060008473ffffffffffffffffffffffffffffffffffffffff1673ffffffffffffffffffffffffffffffffffffffff16815260200190815260200160002060006101000a81548160ff0219169083151502179055508173ffffffffffffffffffffffffffffffffffffffff168373ffffffffffffffffffffffffffffffffffffffff167f17307eab39ab6107e8899845ad3d59bd9653f200f220920489ca2b5937696c3183604051611ae791906132c5565b60405180910390a3505050565b611aff84848461163c565b611b0b84848484611e68565b611b4a576040517f08c379a0000000000000000000000000000000000000000000000000000000008152600401611b4190613322565b60405180910390fd5b50505050565b6060611b5b82611431565b611b9a576040517f08c379a0000000000000000000000000000000000000000000000000000000008152600401611b91906134c2565b60405180910390fd5b6000600660008481526020019081526020016000208054611bba90613818565b80601f0160208091040260200160405190810160405280929190818152602001828054611be690613818565b8015611c335780601f10611c0857610100808354040283529160200191611c33565b820191906000526020600020905b815481529060010190602001808311611c1657829003601f168201915b505050505090506000611c44611fff565b9050600081511415611c5a578192505050611c9d565b600082511115611c8f578082604051602001611c7792919061323a565b60405160208183030381529060405292505050611c9d565b611c9884612016565b925050505b919050565b611cab82611431565b611cea576040517f08c379a0000000000000000000000000000000000000000000000000000000008152600401611ce190613482565b60405180910390fd5b80600660008481526020019081526020016000209080519060200190611d11929190612962565b505050565b60007f80ac58cd000000000000000000000000000000000000000000000000000000007bffffffffffffffffffffffffffffffffffffffffffffffffffffffff1916827bffffffffffffffffffffffffffffffffffffffffffffffffffffffff19161480611de157507f5b5e139f000000000000000000000000000000000000000000000000000000007bffffffffffffffffffffffffffffffffffffffffffffffffffffffff1916827bffffffffffffffffffffffffffffffffffffffffffffffffffffffff1916145b80611df15750611df0826120bd565b5b9050919050565b611e03838383612127565b505050565b505050565b611e17838361223b565b611e246000848484611e68565b611e63576040517f08c379a0000000000000000000000000000000000000000000000000000000008152600401611e5a90613322565b60405180910390fd5b505050565b6000611e898473ffffffffffffffffffffffffffffffffffffffff16612415565b15611ff2578373ffffffffffffffffffffffffffffffffffffffff1663150b7a02611eb261149d565b8786866040518563ffffffff1660e01b8152600401611ed49493929190613279565b602060405180830381600087803b158015611eee57600080fd5b505af1925050508015611f1f57506040513d601f19601f82011682018060405250810190611f1c9190612d62565b60015b611fa2573d8060008114611f4f576040519150601f19603f3d011682016040523d82523d6000602084013e611f54565b606091505b50600081511415611f9a576040517f08c379a0000000000000000000000000000000000000000000000000000000008152600401611f9190613322565b60405180910390fd5b805181602001fd5b63150b7a0260e01b7bffffffffffffffffffffffffffffffffffffffffffffffffffffffff1916817bffffffffffffffffffffffffffffffffffffffffffffffffffffffff191614915050611ff7565b600190505b949350505050565b606060405180602001604052806000815250905090565b606061202182611431565b612060576040517f08c379a000000000000000000000000000000000000000000000000000000000815260040161205790613522565b60405180910390fd5b600061206a611fff565b9050600081511161208a57604051806020016040528060008152506120b5565b8061209484612438565b6040516020016120a592919061323a565b6040516020818303038152906040525b915050919050565b60007f01ffc9a7000000000000000000000000000000000000000000000000000000007bffffffffffffffffffffffffffffffffffffffffffffffffffffffff1916827bffffffffffffffffffffffffffffffffffffffffffffffffffffffff1916149050919050565b6121328383836125e5565b600073ffffffffffffffffffffffffffffffffffffffff168373ffffffffffffffffffffffffffffffffffffffff16141561217557612170816125ea565b6121b4565b8173ffffffffffffffffffffffffffffffffffffffff168373ffffffffffffffffffffffffffffffffffffffff16146121b3576121b28382612633565b5b5b600073ffffffffffffffffffffffffffffffffffffffff168273ffffffffffffffffffffffffffffffffffffffff1614156121f7576121f2816127a0565b612236565b8273ffffffffffffffffffffffffffffffffffffffff168273ffffffffffffffffffffffffffffffffffffffff16146122355761223482826128e3565b5b5b505050565b600073ffffffffffffffffffffffffffffffffffffffff168273ffffffffffffffffffffffffffffffffffffffff1614156122ab576040517f08c379a00000000000000000000000000000000000000000000000000000000081526004016122a2906134a2565b60405180910390fd5b6122b481611431565b156122f4576040517f08c379a00000000000000000000000000000000000000000000000000000000081526004016122eb90613382565b60405180910390fd5b61230060008383611df8565b6001600360008473ffffffffffffffffffffffffffffffffffffffff1673ffffffffffffffffffffffffffffffffffffffff168152602001908152602001600020600082825461235091906136a7565b92505081905550816002600083815260200190815260200160002060006101000a81548173ffffffffffffffffffffffffffffffffffffffff021916908373ffffffffffffffffffffffffffffffffffffffff160217905550808273ffffffffffffffffffffffffffffffffffffffff16600073ffffffffffffffffffffffffffffffffffffffff167fddf252ad1be2c89b69c2b068fc378daa952ba7f163c4a11628f55a4df523b3ef60405160405180910390a461241160008383611e08565b5050565b6000808273ffffffffffffffffffffffffffffffffffffffff163b119050919050565b60606000821415612480576040518060400160405280600181526020017f300000000000000000000000000000000000000000000000000000000000000081525090506125e0565b600082905060005b600082146124b257808061249b9061387b565b915050600a826124ab91906136fd565b9150612488565b60008167ffffffffffffffff8111156124f4577f4e487b7100000000000000000000000000000000000000000000000000000000600052604160045260246000fd5b6040519080825280601f01601f1916602001820160405280156125265781602001600182028036833780820191505090505b5090505b600085146125d95760018261253f919061372e565b9150600a8561254e91906138c4565b603061255a91906136a7565b60f81b818381518110612596577f4e487b7100000000000000000000000000000000000000000000000000000000600052603260045260246000fd5b60200101907effffffffffffffffffffffffffffffffffffffffffffffffffffffffffffff1916908160001a905350600a856125d291906136fd565b945061252a565b8093505050505b919050565b505050565b600980549050600a600083815260200190815260200160002081905550600981908060018154018082558091505060019003906000526020600020016000909190919091505550565b6000600161264084610b14565b61264a919061372e565b905060006008600084815260200190815260200160002054905081811461272f576000600760008673ffffffffffffffffffffffffffffffffffffffff1673ffffffffffffffffffffffffffffffffffffffff168152602001908152602001600020600084815260200190815260200160002054905080600760008773ffffffffffffffffffffffffffffffffffffffff1673ffffffffffffffffffffffffffffffffffffffff168152602001908152602001600020600084815260200190815260200160002081905550816008600083815260200190815260200160002081905550505b6008600084815260200190815260200160002060009055600760008573ffffffffffffffffffffffffffffffffffffffff1673ffffffffffffffffffffffffffffffffffffffff16815260200190815260200160002060008381526020019081526020016000206000905550505050565b600060016009805490506127b4919061372e565b90506000600a600084815260200190815260200160002054905060006009838154811061280a577f4e487b7100000000000000000000000000000000000000000000000000000000600052603260045260246000fd5b906000526020600020015490508060098381548110612852577f4e487b7100000000000000000000000000000000000000000000000000000000600052603260045260246000fd5b906000526020600020018190555081600a600083815260200190815260200160002081905550600a60008581526020019081526020016000206000905560098054806128c7577f4e487b7100000000000000000000000000000000000000000000000000000000600052603160045260246000fd5b6001900381819060005260206000200160009055905550505050565b60006128ee83610b14565b905081600760008573ffffffffffffffffffffffffffffffffffffffff1673ffffffffffffffffffffffffffffffffffffffff168152602001908152602001600020600083815260200190815260200160002081905550806008600084815260200190815260200160002081905550505050565b82805461296e90613818565b90600052602060002090601f01602090048101928261299057600085556129d7565b82601f106129a957805160ff19168380011785556129d7565b828001600101855582156129d7579182015b828111156129d65782518255916020019190600101906129bb565b5b5090506129e491906129e8565b5090565b5b80821115612a015760008160009055506001016129e9565b5090565b6000612a18612a13846135e2565b6135bd565b905082815260208101848484011115612a3057600080fd5b612a3b8482856137d6565b509392505050565b6000612a56612a5184613613565b6135bd565b905082815260208101848484011115612a6e57600080fd5b612a798482856137d6565b509392505050565b600081359050612a9081613fa5565b92915050565b600081359050612aa581613fbc565b92915050565b600081359050612aba81613fd3565b92915050565b600081519050612acf81613fd3565b92915050565b600082601f830112612ae657600080fd5b8135612af6848260208601612a05565b91505092915050565b600082601f830112612b1057600080fd5b8135612b20848260208601612a43565b91505092915050565b600081359050612b3881613fea565b92915050565b600060208284031215612b5057600080fd5b6000612b5e84828501612a81565b91505092915050565b60008060408385031215612b7a57600080fd5b6000612b8885828601612a81565b9250506020612b9985828601612a81565b9150509250929050565b600080600060608486031215612bb857600080fd5b6000612bc686828701612a81565b9350506020612bd786828701612a81565b9250506040612be886828701612b29565b9150509250925092565b60008060008060808587031215612c0857600080fd5b6000612c1687828801612a81565b9450506020612c2787828801612a81565b9350506040612c3887828801612b29565b925050606085013567ffffffffffffffff811115612c5557600080fd5b612c6187828801612ad5565b91505092959194509250565b60008060408385031215612c8057600080fd5b6000612c8e85828601612a81565b9250506020612c9f85828601612a96565b9150509250929050565b60008060408385031215612cbc57600080fd5b6000612cca85828601612a81565b925050602083013567ffffffffffffffff811115612ce757600080fd5b612cf385828601612aff565b9150509250929050565b60008060408385031215612d1057600080fd5b6000612d1e85828601612a81565b9250506020612d2f85828601612b29565b9150509250929050565b600060208284031215612d4b57600080fd5b6000612d5984828501612aab565b91505092915050565b600060208284031215612d7457600080fd5b6000612d8284828501612ac0565b91505092915050565b600060208284031215612d9d57600080fd5b600082013567ffffffffffffffff811115612db757600080fd5b612dc384828501612aff565b91505092915050565b600060208284031215612dde57600080fd5b6000612dec84828501612b29565b91505092915050565b612dfe81613762565b82525050565b612e0d81613774565b82525050565b6000612e1e82613659565b612e28818561366f565b9350612e388185602086016137e5565b612e41816139b1565b840191505092915050565b60008154612e5981613818565b612e638186613680565b94506001821660008114612e7e5760018114612e8f57612ec2565b60ff19831686528186019350612ec2565b612e9885613644565b60005b83811015612eba57815481890152600182019150602081019050612e9b565b838801955050505b50505092915050565b6000612ed682613664565b612ee0818561368b565b9350612ef08185602086016137e5565b612ef9816139b1565b840191505092915050565b6000612f0f82613664565b612f19818561369c565b9350612f298185602086016137e5565b80840191505092915050565b6000612f42602b8361368b565b9150612f4d826139c2565b604082019050919050565b6000612f6560328361368b565b9150612f7082613a11565b604082019050919050565b6000612f8860268361368b565b9150612f9382613a60565b604082019050919050565b6000612fab60258361368b565b9150612fb682613aaf565b604082019050919050565b6000612fce601c8361368b565b9150612fd982613afe565b602082019050919050565b6000612ff160248361368b565b9150612ffc82613b27565b604082019050919050565b600061301460198361368b565b915061301f82613b76565b602082019050919050565b6000613037602c8361368b565b915061304282613b9f565b604082019050919050565b600061305a60388361368b565b915061306582613bee565b604082019050919050565b600061307d60268361368b565b915061308882613c3d565b604082019050919050565b60006130a0602a8361368b565b91506130ab82613c8c565b604082019050919050565b60006130c360298361368b565b91506130ce82613cdb565b604082019050919050565b60006130e6602e8361368b565b91506130f182613d2a565b604082019050919050565b600061310960208361368b565b915061311482613d79565b602082019050919050565b600061312c60318361368b565b915061313782613da2565b604082019050919050565b600061314f602c8361368b565b915061315a82613df1565b604082019050919050565b600061317260208361368b565b915061317d82613e40565b602082019050919050565b6000613195602f8361368b565b91506131a082613e69565b604082019050919050565b60006131b860218361368b565b91506131c382613eb8565b604082019050919050565b60006131db60318361368b565b91506131e682613f07565b604082019050919050565b60006131fe602c8361368b565b915061320982613f56565b604082019050919050565b61321d816137cc565b82525050565b600061322f8284612e4c565b915081905092915050565b60006132468285612f04565b91506132528284612f04565b91508190509392505050565b60006020820190506132736000830184612df5565b92915050565b600060808201905061328e6000830187612df5565b61329b6020830186612df5565b6132a86040830185613214565b81810360608301526132ba8184612e13565b905095945050505050565b60006020820190506132da6000830184612e04565b92915050565b600060208201905081810360008301526132fa8184612ecb565b905092915050565b6000602082019050818103600083015261331b81612f35565b9050919050565b6000602082019050818103600083015261333b81612f58565b9050919050565b6000602082019050818103600083015261335b81612f7b565b9050919050565b6000602082019050818103600083015261337b81612f9e565b9050919050565b6000602082019050818103600083015261339b81612fc1565b9050919050565b600060208201905081810360008301526133bb81612fe4565b9050919050565b600060208201905081810360008301526133db81613007565b9050919050565b600060208201905081810360008301526133fb8161302a565b9050919050565b6000602082019050818103600083015261341b8161304d565b9050919050565b6000602082019050818103600083015261343b81613070565b9050919050565b6000602082019050818103600083015261345b81613093565b9050919050565b6000602082019050818103600083015261347b816130b6565b9050919050565b6000602082019050818103600083015261349b816130d9565b9050919050565b600060208201905081810360008301526134bb816130fc565b9050919050565b600060208201905081810360008301526134db8161311f565b9050919050565b600060208201905081810360008301526134fb81613142565b9050919050565b6000602082019050818103600083015261351b81613165565b9050919050565b6000602082019050818103600083015261353b81613188565b9050919050565b6000602082019050818103600083015261355b816131ab565b9050919050565b6000602082019050818103600083015261357b816131ce565b9050919050565b6000602082019050818103600083015261359b816131f1565b9050919050565b60006020820190506135b76000830184613214565b92915050565b60006135c76135d8565b90506135d3828261384a565b919050565b6000604051905090565b600067ffffffffffffffff8211156135fd576135fc613982565b5b613606826139b1565b9050602081019050919050565b600067ffffffffffffffff82111561362e5761362d613982565b5b613637826139b1565b9050602081019050919050565b60008190508160005260206000209050919050565b600081519050919050565b600081519050919050565b600082825260208201905092915050565b600081905092915050565b600082825260208201905092915050565b600081905092915050565b60006136b2826137cc565b91506136bd836137cc565b9250827fffffffffffffffffffffffffffffffffffffffffffffffffffffffffffffffff038211156136f2576136f16138f5565b5b828201905092915050565b6000613708826137cc565b9150613713836137cc565b92508261372357613722613924565b5b828204905092915050565b6000613739826137cc565b9150613744836137cc565b925082821015613757576137566138f5565b5b828203905092915050565b600061376d826137ac565b9050919050565b60008115159050919050565b60007fffffffff0000000000000000000000000000000000000000000000000000000082169050919050565b600073ffffffffffffffffffffffffffffffffffffffff82169050919050565b6000819050919050565b82818337600083830152505050565b60005b838110156138035780820151818401526020810190506137e8565b83811115613812576000848401525b50505050565b6000600282049050600182168061383057607f821691505b6020821081141561384457613843613953565b5b50919050565b613853826139b1565b810181811067ffffffffffffffff8211171561387257613871613982565b5b80604052505050565b6000613886826137cc565b91507fffffffffffffffffffffffffffffffffffffffffffffffffffffffffffffffff8214156138b9576138b86138f5565b5b600182019050919050565b60006138cf826137cc565b91506138da836137cc565b9250826138ea576138e9613924565b5b828206905092915050565b7f4e487b7100000000000000000000000000000000000000000000000000000000600052601160045260246000fd5b7f4e487b7100000000000000000000000000000000000000000000000000000000600052601260045260246000fd5b7f4e487b7100000000000000000000000000000000000000000000000000000000600052602260045260246000fd5b7f4e487b7100000000000000000000000000000000000000000000000000000000600052604160045260246000fd5b6000601f19601f8301169050919050565b7f455243373231456e756d657261626c653a206f776e657220696e646578206f7560008201527f74206f6620626f756e6473000000000000000000000000000000000000000000602082015250565b7f4552433732313a207472616e7366657220746f206e6f6e20455243373231526560008201527f63656976657220696d706c656d656e7465720000000000000000000000000000602082015250565b7f4f776e61626c653a206e6577206f776e657220697320746865207a65726f206160008201527f6464726573730000000000000000000000000000000000000000000000000000602082015250565b7f4552433732313a207472616e736665722066726f6d20696e636f72726563742060008201527f6f776e6572000000000000000000000000000000000000000000000000000000602082015250565b7f4552433732313a20746f6b656e20616c7265616479206d696e74656400000000600082015250565b7f4552433732313a207472616e7366657220746f20746865207a65726f2061646460008201527f7265737300000000000000000000000000000000000000000000000000000000602082015250565b7f4552433732313a20617070726f766520746f2063616c6c657200000000000000600082015250565b7f4552433732313a206f70657261746f7220717565727920666f72206e6f6e657860008201527f697374656e7420746f6b656e0000000000000000000000000000000000000000602082015250565b7f4552433732313a20617070726f76652063616c6c6572206973206e6f74206f7760008201527f6e6572206e6f7220617070726f76656420666f7220616c6c0000000000000000602082015250565b7f4f6e6c792070726f64756374696f6e2063616e20637265617465207472616e7360008201527f616374696f6e0000000000000000000000000000000000000000000000000000602082015250565b7f4552433732313a2062616c616e636520717565727920666f7220746865207a6560008201527f726f206164647265737300000000000000000000000000000000000000000000602082015250565b7f4552433732313a206f776e657220717565727920666f72206e6f6e657869737460008201527f656e7420746f6b656e0000000000000000000000000000000000000000000000602082015250565b7f45524337323155524953746f726167653a2055524920736574206f66206e6f6e60008201527f6578697374656e7420746f6b656e000000000000000000000000000000000000602082015250565b7f4552433732313a206d696e7420746f20746865207a65726f2061646472657373600082015250565b7f45524337323155524953746f726167653a2055524920717565727920666f722060008201527f6e6f6e6578697374656e7420746f6b656e000000000000000000000000000000602082015250565b7f4552433732313a20617070726f76656420717565727920666f72206e6f6e657860008201527f697374656e7420746f6b656e0000000000000000000000000000000000000000602082015250565b7f4f776e61626c653a2063616c6c6572206973206e6f7420746865206f776e6572600082015250565b7f4552433732314d657461646174613a2055524920717565727920666f72206e6f60008201527f6e6578697374656e7420746f6b656e0000000000000000000000000000000000602082015250565b7f4552433732313a20617070726f76616c20746f2063757272656e74206f776e6560008201527f7200000000000000000000000000000000000000000000000000000000000000602082015250565b7f4552433732313a207472616e736665722063616c6c6572206973206e6f74206f60008201527f776e6572206e6f7220617070726f766564000000000000000000000000000000602082015250565b7f455243373231456e756d657261626c653a20676c6f62616c20696e646578206f60008201527f7574206f6620626f756e64730000000000000000000000000000000000000000602082015250565b613fae81613762565b8114613fb957600080fd5b50565b613fc581613774565b8114613fd057600080fd5b50565b613fdc81613780565b8114613fe757600080fd5b50565b613ff3816137cc565b8114613ffe57600080fd5b5056fea2646970667358221220f8bc6165fb81b421ffeefd7c8a11a61a53b3f431b55cb48104bb03649ef95bde64736f6c63430008040033",
  "devdoc": {
    "kind": "dev",
    "methods": {
      "approve(address,uint256)": {
        "details": "See {IERC721-approve}."
      },
      "balanceOf(address)": {
        "details": "See {IERC721-balanceOf}."
      },
      "getApproved(uint256)": {
        "details": "See {IERC721-getApproved}."
      },
      "isApprovedForAll(address,address)": {
        "details": "See {IERC721-isApprovedForAll}."
      },
      "name()": {
        "details": "See {IERC721Metadata-name}."
      },
      "owner()": {
        "details": "Returns the address of the current owner."
      },
      "ownerOf(uint256)": {
        "details": "See {IERC721-ownerOf}."
      },
      "renounceOwnership()": {
        "details": "Leaves the contract without owner. It will not be possible to call `onlyOwner` functions anymore. Can only be called by the current owner. NOTE: Renouncing ownership will leave the contract without an owner, thereby removing any functionality that is only available to the owner."
      },
      "safeTransferFrom(address,address,uint256)": {
        "details": "See {IERC721-safeTransferFrom}."
      },
      "safeTransferFrom(address,address,uint256,bytes)": {
        "details": "See {IERC721-safeTransferFrom}."
      },
      "setApprovalForAll(address,bool)": {
        "details": "See {IERC721-setApprovalForAll}."
      },
      "symbol()": {
        "details": "See {IERC721Metadata-symbol}."
      },
      "tokenByIndex(uint256)": {
        "details": "See {IERC721Enumerable-tokenByIndex}."
      },
      "tokenOfOwnerByIndex(address,uint256)": {
        "details": "See {IERC721Enumerable-tokenOfOwnerByIndex}."
      },
      "totalSupply()": {
        "details": "See {IERC721Enumerable-totalSupply}."
      },
      "transferFrom(address,address,uint256)": {
        "details": "See {IERC721-transferFrom}."
      },
      "transferOwnership(address)": {
        "details": "Transfers ownership of the contract to a new account (`newOwner`). Can only be called by the current owner."
      }
    },
    "version": 1
  },
  "userdoc": {
    "kind": "user",
    "methods": {},
    "version": 1
  },
  "storageLayout": {
    "storage": [
      {
        "astId": 170,
        "contract": "contracts/CarboToken.sol:CarboToken",
        "label": "_name",
        "offset": 0,
        "slot": "0",
        "type": "t_string_storage"
      },
      {
        "astId": 172,
        "contract": "contracts/CarboToken.sol:CarboToken",
        "label": "_symbol",
        "offset": 0,
        "slot": "1",
        "type": "t_string_storage"
      },
      {
        "astId": 176,
        "contract": "contracts/CarboToken.sol:CarboToken",
        "label": "_owners",
        "offset": 0,
        "slot": "2",
        "type": "t_mapping(t_uint256,t_address)"
      },
      {
        "astId": 180,
        "contract": "contracts/CarboToken.sol:CarboToken",
        "label": "_balances",
        "offset": 0,
        "slot": "3",
        "type": "t_mapping(t_address,t_uint256)"
      },
      {
        "astId": 184,
        "contract": "contracts/CarboToken.sol:CarboToken",
        "label": "_tokenApprovals",
        "offset": 0,
        "slot": "4",
        "type": "t_mapping(t_uint256,t_address)"
      },
      {
        "astId": 190,
        "contract": "contracts/CarboToken.sol:CarboToken",
        "label": "_operatorApprovals",
        "offset": 0,
        "slot": "5",
        "type": "t_mapping(t_address,t_mapping(t_address,t_bool))"
      },
      {
        "astId": 1495,
        "contract": "contracts/CarboToken.sol:CarboToken",
        "label": "_tokenURIs",
        "offset": 0,
        "slot": "6",
        "type": "t_mapping(t_uint256,t_string_storage)"
      },
      {
        "astId": 1159,
        "contract": "contracts/CarboToken.sol:CarboToken",
        "label": "_ownedTokens",
        "offset": 0,
        "slot": "7",
        "type": "t_mapping(t_address,t_mapping(t_uint256,t_uint256))"
      },
      {
        "astId": 1163,
        "contract": "contracts/CarboToken.sol:CarboToken",
        "label": "_ownedTokensIndex",
        "offset": 0,
        "slot": "8",
        "type": "t_mapping(t_uint256,t_uint256)"
      },
      {
        "astId": 1166,
        "contract": "contracts/CarboToken.sol:CarboToken",
        "label": "_allTokens",
        "offset": 0,
        "slot": "9",
        "type": "t_array(t_uint256)dyn_storage"
      },
      {
        "astId": 1170,
        "contract": "contracts/CarboToken.sol:CarboToken",
        "label": "_allTokensIndex",
        "offset": 0,
        "slot": "10",
        "type": "t_mapping(t_uint256,t_uint256)"
      },
      {
        "astId": 7,
        "contract": "contracts/CarboToken.sol:CarboToken",
        "label": "_owner",
        "offset": 0,
        "slot": "11",
        "type": "t_address"
      },
      {
        "astId": 2240,
        "contract": "contracts/CarboToken.sol:CarboToken",
        "label": "_burnAddress",
        "offset": 0,
        "slot": "12",
        "type": "t_address"
      },
      {
        "astId": 2244,
        "contract": "contracts/CarboToken.sol:CarboToken",
        "label": "_parties",
        "offset": 0,
        "slot": "13",
        "type": "t_mapping(t_address,t_string_storage)"
      },
      {
        "astId": 2254,
        "contract": "contracts/CarboToken.sol:CarboToken",
        "label": "products",
        "offset": 0,
        "slot": "14",
        "type": "t_mapping(t_uint256,t_struct(Product)2249_storage)"
      },
      {
        "astId": 2257,
        "contract": "contracts/CarboToken.sol:CarboToken",
        "label": "productCount",
        "offset": 0,
        "slot": "15",
        "type": "t_uint256"
      },
      {
        "astId": 2260,
        "contract": "contracts/CarboToken.sol:CarboToken",
        "label": "transactionCount",
        "offset": 0,
        "slot": "16",
        "type": "t_uint256"
      }
    ],
    "types": {
      "t_address": {
        "encoding": "inplace",
        "label": "address",
        "numberOfBytes": "20"
      },
      "t_array(t_uint256)dyn_storage": {
        "base": "t_uint256",
        "encoding": "dynamic_array",
        "label": "uint256[]",
        "numberOfBytes": "32"
      },
      "t_bool": {
        "encoding": "inplace",
        "label": "bool",
        "numberOfBytes": "1"
      },
      "t_mapping(t_address,t_bool)": {
        "encoding": "mapping",
        "key": "t_address",
        "label": "mapping(address => bool)",
        "numberOfBytes": "32",
        "value": "t_bool"
      },
      "t_mapping(t_address,t_mapping(t_address,t_bool))": {
        "encoding": "mapping",
        "key": "t_address",
        "label": "mapping(address => mapping(address => bool))",
        "numberOfBytes": "32",
        "value": "t_mapping(t_address,t_bool)"
      },
      "t_mapping(t_address,t_mapping(t_uint256,t_uint256))": {
        "encoding": "mapping",
        "key": "t_address",
        "label": "mapping(address => mapping(uint256 => uint256))",
        "numberOfBytes": "32",
        "value": "t_mapping(t_uint256,t_uint256)"
      },
      "t_mapping(t_address,t_string_storage)": {
        "encoding": "mapping",
        "key": "t_address",
        "label": "mapping(address => string)",
        "numberOfBytes": "32",
        "value": "t_string_storage"
      },
      "t_mapping(t_address,t_uint256)": {
        "encoding": "mapping",
        "key": "t_address",
        "label": "mapping(address => uint256)",
        "numberOfBytes": "32",
        "value": "t_uint256"
      },
      "t_mapping(t_uint256,t_address)": {
        "encoding": "mapping",
        "key": "t_uint256",
        "label": "mapping(uint256 => address)",
        "numberOfBytes": "32",
        "value": "t_address"
      },
      "t_mapping(t_uint256,t_string_storage)": {
        "encoding": "mapping",
        "key": "t_uint256",
        "label": "mapping(uint256 => string)",
        "numberOfBytes": "32",
        "value": "t_string_storage"
      },
      "t_mapping(t_uint256,t_struct(Product)2249_storage)": {
        "encoding": "mapping",
        "key": "t_uint256",
        "label": "mapping(uint256 => struct CarboToken.Product)",
        "numberOfBytes": "32",
        "value": "t_struct(Product)2249_storage"
      },
      "t_mapping(t_uint256,t_uint256)": {
        "encoding": "mapping",
        "key": "t_uint256",
        "label": "mapping(uint256 => uint256)",
        "numberOfBytes": "32",
        "value": "t_uint256"
      },
      "t_string_storage": {
        "encoding": "bytes",
        "label": "string",
        "numberOfBytes": "32"
      },
      "t_struct(Product)2249_storage": {
        "encoding": "inplace",
        "label": "struct CarboToken.Product",
        "members": [
          {
            "astId": 2246,
            "contract": "contracts/CarboToken.sol:CarboToken",
            "label": "id",
            "offset": 0,
            "slot": "0",
            "type": "t_uint256"
          },
          {
            "astId": 2248,
            "contract": "contracts/CarboToken.sol:CarboToken",
            "label": "name",
            "offset": 0,
            "slot": "1",
            "type": "t_string_storage"
          }
        ],
        "numberOfBytes": "64"
      },
      "t_uint256": {
        "encoding": "inplace",
        "label": "uint256",
        "numberOfBytes": "32"
      }
    }
  }
}