{
  "address": "0x313aB0711ca6E93d644520703D924EB557185C4a",
  "abi": [
    {
      "inputs": [
        {
          "internalType": "string",
          "name": "merchantName",
          "type": "string"
        },
        {
          "internalType": "string",
          "name": "merchantSymbol",
          "type": "string"
        }
      ],
      "stateMutability": "nonpayable",
      "type": "constructor"
    },
    {
      "anonymous": false,
      "inputs": [
        {
          "indexed": true,
          "internalType": "address",
          "name": "owner",
          "type": "address"
        },
        {
          "indexed": true,
          "internalType": "address",
          "name": "approved",
          "type": "address"
        },
        {
          "indexed": true,
          "internalType": "uint256",
          "name": "tokenId",
          "type": "uint256"
        }
      ],
      "name": "Approval",
      "type": "event"
    },
    {
      "anonymous": false,
      "inputs": [
        {
          "indexed": true,
          "internalType": "address",
          "name": "owner",
          "type": "address"
        },
        {
          "indexed": true,
          "internalType": "address",
          "name": "operator",
          "type": "address"
        },
        {
          "indexed": false,
          "internalType": "bool",
          "name": "approved",
          "type": "bool"
        }
      ],
      "name": "ApprovalForAll",
      "type": "event"
    },
    {
      "anonymous": false,
      "inputs": [
        {
          "indexed": true,
          "internalType": "address",
          "name": "previousOwner",
          "type": "address"
        },
        {
          "indexed": true,
          "internalType": "address",
          "name": "newOwner",
          "type": "address"
        }
      ],
      "name": "OwnershipTransferred",
      "type": "event"
    },
    {
      "anonymous": false,
      "inputs": [
        {
          "indexed": true,
          "internalType": "address",
          "name": "from",
          "type": "address"
        },
        {
          "indexed": true,
          "internalType": "address",
          "name": "to",
          "type": "address"
        },
        {
          "indexed": true,
          "internalType": "uint256",
          "name": "tokenId",
          "type": "uint256"
        }
      ],
      "name": "Transfer",
      "type": "event"
    },
    {
      "inputs": [],
      "name": "_burnAddress",
      "outputs": [
        {
          "internalType": "address",
          "name": "",
          "type": "address"
        }
      ],
      "stateMutability": "view",
      "type": "function"
    },
    {
      "inputs": [
        {
          "internalType": "address",
          "name": "_address",
          "type": "address"
        },
        {
          "internalType": "string",
          "name": "_type",
          "type": "string"
        }
      ],
      "name": "addParty",
      "outputs": [],
      "stateMutability": "nonpayable",
      "type": "function"
    },
    {
      "inputs": [
        {
          "internalType": "string",
          "name": "productName",
          "type": "string"
        }
      ],
      "name": "addProducts",
      "outputs": [],
      "stateMutability": "nonpayable",
      "type": "function"
    },
    {
      "inputs": [
        {
          "internalType": "address",
          "name": "to",
          "type": "address"
        },
        {
          "internalType": "uint256",
          "name": "tokenId",
          "type": "uint256"
        }
      ],
      "name": "approve",
      "outputs": [],
      "stateMutability": "nonpayable",
      "type": "function"
    },
    {
      "inputs": [
        {
          "internalType": "address",
          "name": "owner",
          "type": "address"
        }
      ],
      "name": "balanceOf",
      "outputs": [
        {
          "internalType": "uint256",
          "name": "",
          "type": "uint256"
        }
      ],
      "stateMutability": "view",
      "type": "function"
    },
    {
      "inputs": [
        {
          "internalType": "address",
          "name": "_newAddress",
          "type": "address"
        }
      ],
      "name": "changeBurnAddress",
      "outputs": [],
      "stateMutability": "nonpayable",
      "type": "function"
    },
    {
      "inputs": [
        {
          "internalType": "address",
          "name": "_nextParty",
          "type": "address"
        },
        {
          "internalType": "string",
          "name": "tokenUri",
          "type": "string"
        }
      ],
      "name": "createTransaction",
      "outputs": [
        {
          "internalType": "uint256",
          "name": "tokenID",
          "type": "uint256"
        }
      ],
      "stateMutability": "nonpayable",
      "type": "function"
    },
    {
      "inputs": [
        {
          "internalType": "uint256",
          "name": "tokenId",
          "type": "uint256"
        }
      ],
      "name": "getApproved",
      "outputs": [
        {
          "internalType": "address",
          "name": "",
          "type": "address"
        }
      ],
      "stateMutability": "view",
      "type": "function"
    },
    {
      "inputs": [
        {
          "internalType": "uint256",
          "name": "tokenID",
          "type": "uint256"
        }
      ],
      "name": "holderBurn",
      "outputs": [
        {
          "internalType": "string",
          "name": "message",
          "type": "string"
        }
      ],
      "stateMutability": "nonpayable",
      "type": "function"
    },
    {
      "inputs": [
        {
          "internalType": "address",
          "name": "_nextParty",
          "type": "address"
        },
        {
          "internalType": "uint256",
          "name": "tokenID",
          "type": "uint256"
        }
      ],
      "name": "holderSign",
      "outputs": [
        {
          "internalType": "string",
          "name": "message",
          "type": "string"
        }
      ],
      "stateMutability": "nonpayable",
      "type": "function"
    },
    {
      "inputs": [
        {
          "internalType": "address",
          "name": "owner",
          "type": "address"
        },
        {
          "internalType": "address",
          "name": "operator",
          "type": "address"
        }
      ],
      "name": "isApprovedForAll",
      "outputs": [
        {
          "internalType": "bool",
          "name": "",
          "type": "bool"
        }
      ],
      "stateMutability": "view",
      "type": "function"
    },
    {
      "inputs": [
        {
          "internalType": "address",
          "name": "_to",
          "type": "address"
        }
      ],
      "name": "mint",
      "outputs": [],
      "stateMutability": "nonpayable",
      "type": "function"
    },
    {
      "inputs": [],
      "name": "name",
      "outputs": [
        {
          "internalType": "string",
          "name": "",
          "type": "string"
        }
      ],
      "stateMutability": "view",
      "type": "function"
    },
    {
      "inputs": [],
      "name": "owner",
      "outputs": [
        {
          "internalType": "address",
          "name": "",
          "type": "address"
        }
      ],
      "stateMutability": "view",
      "type": "function"
    },
    {
      "inputs": [
        {
          "internalType": "uint256",
          "name": "tokenId",
          "type": "uint256"
        }
      ],
      "name": "ownerOf",
      "outputs": [
        {
          "internalType": "address",
          "name": "",
          "type": "address"
        }
      ],
      "stateMutability": "view",
      "type": "function"
    },
    {
      "inputs": [],
      "name": "renounceOwnership",
      "outputs": [],
      "stateMutability": "nonpayable",
      "type": "function"
    },
    {
      "inputs": [
        {
          "internalType": "address",
          "name": "from",
          "type": "address"
        },
        {
          "internalType": "address",
          "name": "to",
          "type": "address"
        },
        {
          "internalType": "uint256",
          "name": "tokenId",
          "type": "uint256"
        }
      ],
      "name": "safeTransferFrom",
      "outputs": [],
      "stateMutability": "nonpayable",
      "type": "function"
    },
    {
      "inputs": [
        {
          "internalType": "address",
          "name": "from",
          "type": "address"
        },
        {
          "internalType": "address",
          "name": "to",
          "type": "address"
        },
        {
          "internalType": "uint256",
          "name": "tokenId",
          "type": "uint256"
        },
        {
          "internalType": "bytes",
          "name": "_data",
          "type": "bytes"
        }
      ],
      "name": "safeTransferFrom",
      "outputs": [],
      "stateMutability": "nonpayable",
      "type": "function"
    },
    {
      "inputs": [
        {
          "internalType": "address",
          "name": "operator",
          "type": "address"
        },
        {
          "internalType": "bool",
          "name": "approved",
          "type": "bool"
        }
      ],
      "name": "setApprovalForAll",
      "outputs": [],
      "stateMutability": "nonpayable",
      "type": "function"
    },
    {
      "inputs": [
        {
          "internalType": "bytes4",
          "name": "interfaceId",
          "type": "bytes4"
        }
      ],
      "name": "supportsInterface",
      "outputs": [
        {
          "internalType": "bool",
          "name": "",
          "type": "bool"
        }
      ],
      "stateMutability": "view",
      "type": "function"
    },
    {
      "inputs": [],
      "name": "symbol",
      "outputs": [
        {
          "internalType": "string",
          "name": "",
          "type": "string"
        }
      ],
      "stateMutability": "view",
      "type": "function"
    },
    {
      "inputs": [
        {
          "internalType": "uint256",
          "name": "index",
          "type": "uint256"
        }
      ],
      "name": "tokenByIndex",
      "outputs": [
        {
          "internalType": "uint256",
          "name": "",
          "type": "uint256"
        }
      ],
      "stateMutability": "view",
      "type": "function"
    },
    {
      "inputs": [
        {
          "internalType": "address",
          "name": "owner",
          "type": "address"
        },
        {
          "internalType": "uint256",
          "name": "index",
          "type": "uint256"
        }
      ],
      "name": "tokenOfOwnerByIndex",
      "outputs": [
        {
          "internalType": "uint256",
          "name": "",
          "type": "uint256"
        }
      ],
      "stateMutability": "view",
      "type": "function"
    },
    {
      "inputs": [
        {
          "internalType": "uint256",
          "name": "tokenId",
          "type": "uint256"
        }
      ],
      "name": "tokenURI",
      "outputs": [
        {
          "internalType": "string",
          "name": "",
          "type": "string"
        }
      ],
      "stateMutability": "view",
      "type": "function"
    },
    {
      "inputs": [],
      "name": "totalSupply",
      "outputs": [
        {
          "internalType": "uint256",
          "name": "",
          "type": "uint256"
        }
      ],
      "stateMutability": "view",
      "type": "function"
    },
    {
      "inputs": [
        {
          "internalType": "address",
          "name": "from",
          "type": "address"
        },
        {
          "internalType": "address",
          "name": "to",
          "type": "address"
        },
        {
          "internalType": "uint256",
          "name": "tokenId",
          "type": "uint256"
        }
      ],
      "name": "transferFrom",
      "outputs": [],
      "stateMutability": "nonpayable",
      "type": "function"
    },
    {
      "inputs": [
        {
          "internalType": "address",
          "name": "newOwner",
          "type": "address"
        }
      ],
      "name": "transferOwnership",
      "outputs": [],
      "stateMutability": "nonpayable",
      "type": "function"
    }
  ],
  "transactionHash": "0x138f9c9a30654f5b9021750a522b2ee8deb9816b8e03937486653e73c36bc0e3",
  "args": [
    "SuperMercat",
    "SUPER"
  ],
  "numDeployments": 5,
  "solcInputHash": "48bf7a0b3345eb55f1d060537006f90d",
  "bytecode": "0x6080604052738d891cffaec8dd6e571b717872db8095541110b2600c60006101000a81548173ffffffffffffffffffffffffffffffffffffffff021916908373ffffffffffffffffffffffffffffffffffffffff1602179055506000600f5560006010553480156200007057600080fd5b506040516200469438038062004694833981810160405281019062000096919062000374565b81818160009080519060200190620000b092919062000252565b508060019080519060200190620000c992919062000252565b505050620000ec620000e06200018460201b60201c565b6200018c60201b60201c565b60008251141562000134576040517f08c379a00000000000000000000000000000000000000000000000000000000081526004016200012b9062000457565b60405180910390fd5b6000815114156200017c576040517f08c379a0000000000000000000000000000000000000000000000000000000008152600401620001739062000435565b60405180910390fd5b50506200064c565b600033905090565b6000600b60009054906101000a900473ffffffffffffffffffffffffffffffffffffffff16905081600b60006101000a81548173ffffffffffffffffffffffffffffffffffffffff021916908373ffffffffffffffffffffffffffffffffffffffff1602179055508173ffffffffffffffffffffffffffffffffffffffff168173ffffffffffffffffffffffffffffffffffffffff167f8be0079c531659141344cd1fd0a4f28419497f9722a3daafe3b4186f6b6457e060405160405180910390a35050565b82805462000260906200051f565b90600052602060002090601f016020900481019282620002845760008555620002d0565b82601f106200029f57805160ff1916838001178555620002d0565b82800160010185558215620002d0579182015b82811115620002cf578251825591602001919060010190620002b2565b5b509050620002df9190620002e3565b5090565b5b80821115620002fe576000816000905550600101620002e4565b5090565b6000620003196200031384620004a2565b62000479565b9050828152602081018484840111156200033257600080fd5b6200033f848285620004e9565b509392505050565b600082601f8301126200035957600080fd5b81516200036b84826020860162000302565b91505092915050565b600080604083850312156200038857600080fd5b600083015167ffffffffffffffff811115620003a357600080fd5b620003b18582860162000347565b925050602083015167ffffffffffffffff811115620003cf57600080fd5b620003dd8582860162000347565b9150509250929050565b6000620003f6602083620004d8565b91506200040382620005fa565b602082019050919050565b60006200041d601e83620004d8565b91506200042a8262000623565b602082019050919050565b600060208201905081810360008301526200045081620003e7565b9050919050565b6000602082019050818103600083015262000472816200040e565b9050919050565b60006200048562000498565b905062000493828262000555565b919050565b6000604051905090565b600067ffffffffffffffff821115620004c057620004bf620005ba565b5b620004cb82620005e9565b9050602081019050919050565b600082825260208201905092915050565b60005b8381101562000509578082015181840152602081019050620004ec565b8381111562000519576000848401525b50505050565b600060028204905060018216806200053857607f821691505b602082108114156200054f576200054e6200058b565b5b50919050565b6200056082620005e9565b810181811067ffffffffffffffff82111715620005825762000581620005ba565b5b80604052505050565b7f4e487b7100000000000000000000000000000000000000000000000000000000600052602260045260246000fd5b7f4e487b7100000000000000000000000000000000000000000000000000000000600052604160045260246000fd5b6000601f19601f8301169050919050565b7f4d65726368616e742073796d626f6c2063616e6e6f7420626520626c616e6b21600082015250565b7f4d65726368616e74206e616d652063616e6e6f7420626520626c616e6b210000600082015250565b614038806200065c6000396000f3fe608060405234801561001057600080fd5b50600436106101a95760003560e01c8063715018a6116100f9578063bd3900c011610097578063e985e9c511610071578063e985e9c5146104de578063eb2fadf01461050e578063ee3d17061461053e578063f2fde38b1461055a576101a9565b8063bd3900c014610460578063c87b56dd1461047e578063d5b21447146104ae576101a9565b806395d89b41116100d357806395d89b41146103ee578063a22cb4651461040c578063aaf23b2d14610428578063b88d4fde14610444576101a9565b8063715018a6146103965780638da5cb5b146103a05780638e2f2ab7146103be576101a9565b806323b872dd116101665780634f6ccce7116101405780634f6ccce7146102ea5780636352211e1461031a5780636a6278421461034a57806370a0823114610366576101a9565b806323b872dd146102825780632f745c591461029e57806342842e0e146102ce576101a9565b806301ffc9a7146101ae57806306fdde03146101de578063081812fc146101fc578063095ea7b31461022c57806318160ddd1461024857806321405cd114610266575b600080fd5b6101c860048036038101906101c39190612d3a565b610576565b6040516101d591906132c6565b60405180910390f35b6101e6610588565b6040516101f391906132e1565b60405180910390f35b61021660048036038101906102119190612dcd565b61061a565b604051610223919061325f565b60405180910390f35b61024660048036038101906102419190612cfe565b61069f565b005b6102506107b7565b60405161025d91906135a3565b60405180910390f35b610280600480360381019061027b9190612caa565b6107c4565b005b61029c60048036038101906102979190612ba4565b610898565b005b6102b860048036038101906102b39190612cfe565b6108f8565b6040516102c591906135a3565b60405180910390f35b6102e860048036038101906102e39190612ba4565b61099d565b005b61030460048036038101906102ff9190612dcd565b6109bd565b60405161031191906135a3565b60405180910390f35b610334600480360381019061032f9190612dcd565b610a54565b604051610341919061325f565b60405180910390f35b610364600480360381019061035f9190612b3f565b610b06565b005b610380600480360381019061037b9190612b3f565b610b15565b60405161038d91906135a3565b60405180910390f35b61039e610bcd565b005b6103a8610c55565b6040516103b5919061325f565b60405180910390f35b6103d860048036038101906103d39190612dcd565b610c7f565b6040516103e591906132e1565b60405180910390f35b6103f6610d69565b60405161040391906132e1565b60405180910390f35b61042660048036038101906104219190612c6e565b610dfb565b005b610442600480360381019061043d9190612d8c565b610e11565b005b61045e60048036038101906104599190612bf3565b610efe565b005b610468610f60565b604051610475919061325f565b60405180910390f35b61049860048036038101906104939190612dcd565b610f86565b6040516104a591906132e1565b60405180910390f35b6104c860048036038101906104c39190612cfe565b610f98565b6040516104d591906132e1565b60405180910390f35b6104f860048036038101906104f39190612b68565b611061565b60405161050591906132c6565b60405180910390f35b61052860048036038101906105239190612caa565b6110f5565b60405161053591906135a3565b60405180910390f35b61055860048036038101906105539190612b3f565b611200565b005b610574600480360381019061056f9190612b3f565b6112c0565b005b6000610581826113b8565b9050919050565b60606000805461059790613819565b80601f01602080910402602001604051908101604052809291908181526020018280546105c390613819565b80156106105780601f106105e557610100808354040283529160200191610610565b820191906000526020600020905b8154815290600101906020018083116105f357829003601f168201915b5050505050905090565b600061062582611432565b610664576040517f08c379a000000000000000000000000000000000000000000000000000000000815260040161065b906134e3565b60405180910390fd5b6004600083815260200190815260200160002060009054906101000a900473ffffffffffffffffffffffffffffffffffffffff169050919050565b60006106aa82610a54565b90508073ffffffffffffffffffffffffffffffffffffffff168373ffffffffffffffffffffffffffffffffffffffff16141561071b576040517f08c379a000000000000000000000000000000000000000000000000000000000815260040161071290613543565b60405180910390fd5b8073ffffffffffffffffffffffffffffffffffffffff1661073a61149e565b73ffffffffffffffffffffffffffffffffffffffff16148061076957506107688161076361149e565b611061565b5b6107a8576040517f08c379a000000000000000000000000000000000000000000000000000000000815260040161079f90613403565b60405180910390fd5b6107b283836114a6565b505050565b6000600980549050905090565b6107cc61149e565b73ffffffffffffffffffffffffffffffffffffffff166107ea610c55565b73ffffffffffffffffffffffffffffffffffffffff1614610840576040517f08c379a000000000000000000000000000000000000000000000000000000000815260040161083790613503565b60405180910390fd5b80600d60008473ffffffffffffffffffffffffffffffffffffffff1673ffffffffffffffffffffffffffffffffffffffff1681526020019081526020016000209080519060200190610893929190612963565b505050565b6108a96108a361149e565b8261155f565b6108e8576040517f08c379a00000000000000000000000000000000000000000000000000000000081526004016108df90613563565b60405180910390fd5b6108f383838361163d565b505050565b600061090383610b15565b8210610944576040517f08c379a000000000000000000000000000000000000000000000000000000000815260040161093b90613303565b60405180910390fd5b600760008473ffffffffffffffffffffffffffffffffffffffff1673ffffffffffffffffffffffffffffffffffffffff168152602001908152602001600020600083815260200190815260200160002054905092915050565b6109b883838360405180602001604052806000815250610efe565b505050565b60006109c76107b7565b8210610a08576040517f08c379a00000000000000000000000000000000000000000000000000000000081526004016109ff90613583565b60405180910390fd5b60098281548110610a42577f4e487b7100000000000000000000000000000000000000000000000000000000600052603260045260246000fd5b90600052602060002001549050919050565b6000806002600084815260200190815260200160002060009054906101000a900473ffffffffffffffffffffffffffffffffffffffff169050600073ffffffffffffffffffffffffffffffffffffffff168173ffffffffffffffffffffffffffffffffffffffff161415610afd576040517f08c379a0000000000000000000000000000000000000000000000000000000008152600401610af490613463565b60405180910390fd5b80915050919050565b610b12816010546118a4565b50565b60008073ffffffffffffffffffffffffffffffffffffffff168273ffffffffffffffffffffffffffffffffffffffff161415610b86576040517f08c379a0000000000000000000000000000000000000000000000000000000008152600401610b7d90613443565b60405180910390fd5b600360008373ffffffffffffffffffffffffffffffffffffffff1673ffffffffffffffffffffffffffffffffffffffff168152602001908152602001600020549050919050565b610bd561149e565b73ffffffffffffffffffffffffffffffffffffffff16610bf3610c55565b73ffffffffffffffffffffffffffffffffffffffff1614610c49576040517f08c379a0000000000000000000000000000000000000000000000000000000008152600401610c4090613503565b60405180910390fd5b610c5360006118c2565b565b6000600b60009054906101000a900473ffffffffffffffffffffffffffffffffffffffff16905090565b60606000610c8c33610b15565b905060005b81811015610d295783610ca433836108f8565b1415610d1657610cd733600c60009054906101000a900473ffffffffffffffffffffffffffffffffffffffff168661099d565b6040518060400160405280601481526020017f5375636365737366756c6c79206275726e65642100000000000000000000000081525092505050610d64565b8080610d219061387c565b915050610c91565b506040518060400160405280601081526020017f546f6b656e206e6f7420666f756e6421000000000000000000000000000000008152509150505b919050565b606060018054610d7890613819565b80601f0160208091040260200160405190810160405280929190818152602001828054610da490613819565b8015610df15780601f10610dc657610100808354040283529160200191610df1565b820191906000526020600020905b815481529060010190602001808311610dd457829003601f168201915b5050505050905090565b610e0d610e0661149e565b8383611988565b5050565b610e1961149e565b73ffffffffffffffffffffffffffffffffffffffff16610e37610c55565b73ffffffffffffffffffffffffffffffffffffffff1614610e8d576040517f08c379a0000000000000000000000000000000000000000000000000000000008152600401610e8490613503565b60405180910390fd5b6040518060400160405280600f54815260200182815250600e6000600f548152602001908152602001600020600082015181600001556020820151816001019080519060200190610edf929190612963565b50905050600f6000815480929190610ef69061387c565b919050555050565b610f0f610f0961149e565b8361155f565b610f4e576040517f08c379a0000000000000000000000000000000000000000000000000000000008152600401610f4590613563565b60405180910390fd5b610f5a84848484611af5565b50505050565b600c60009054906101000a900473ffffffffffffffffffffffffffffffffffffffff1681565b6060610f9182611b51565b9050919050565b60606000610fa533610b15565b905060005b818110156110205783610fbd33836108f8565b141561100d57610fce33868661099d565b6040518060400160405280601981526020017f5375636365737366756c6c79207472616e7366657272656421000000000000008152509250505061105b565b80806110189061387c565b915050610faa565b506040518060400160405280601081526020017f546f6b656e206e6f7420666f756e6421000000000000000000000000000000008152509150505b92915050565b6000600560008473ffffffffffffffffffffffffffffffffffffffff1673ffffffffffffffffffffffffffffffffffffffff16815260200190815260200160002060008373ffffffffffffffffffffffffffffffffffffffff1673ffffffffffffffffffffffffffffffffffffffff16815260200190815260200160002060009054906101000a900460ff16905092915050565b60006040518060400160405280600a81526020017f50726f64756374696f6e0000000000000000000000000000000000000000000081525080519060200120600d60003373ffffffffffffffffffffffffffffffffffffffff1673ffffffffffffffffffffffffffffffffffffffff1681526020019081526020016000206040516111809190613224565b6040518091039020146111c8576040517f08c379a00000000000000000000000000000000000000000000000000000000081526004016111bf90613423565b60405180910390fd5b6111d183610b06565b6111dd60105483611ca3565b601060008154809291906111f09061387c565b9190505550601054905092915050565b61120861149e565b73ffffffffffffffffffffffffffffffffffffffff16611226610c55565b73ffffffffffffffffffffffffffffffffffffffff161461127c576040517f08c379a000000000000000000000000000000000000000000000000000000000815260040161127390613503565b60405180910390fd5b80600c60006101000a81548173ffffffffffffffffffffffffffffffffffffffff021916908373ffffffffffffffffffffffffffffffffffffffff16021790555050565b6112c861149e565b73ffffffffffffffffffffffffffffffffffffffff166112e6610c55565b73ffffffffffffffffffffffffffffffffffffffff161461133c576040517f08c379a000000000000000000000000000000000000000000000000000000000815260040161133390613503565b60405180910390fd5b600073ffffffffffffffffffffffffffffffffffffffff168173ffffffffffffffffffffffffffffffffffffffff1614156113ac576040517f08c379a00000000000000000000000000000000000000000000000000000000081526004016113a390613343565b60405180910390fd5b6113b5816118c2565b50565b60007f780e9d63000000000000000000000000000000000000000000000000000000007bffffffffffffffffffffffffffffffffffffffffffffffffffffffff1916827bffffffffffffffffffffffffffffffffffffffffffffffffffffffff1916148061142b575061142a82611d17565b5b9050919050565b60008073ffffffffffffffffffffffffffffffffffffffff166002600084815260200190815260200160002060009054906101000a900473ffffffffffffffffffffffffffffffffffffffff1673ffffffffffffffffffffffffffffffffffffffff1614159050919050565b600033905090565b816004600083815260200190815260200160002060006101000a81548173ffffffffffffffffffffffffffffffffffffffff021916908373ffffffffffffffffffffffffffffffffffffffff160217905550808273ffffffffffffffffffffffffffffffffffffffff1661151983610a54565b73ffffffffffffffffffffffffffffffffffffffff167f8c5be1e5ebec7d5bd14f71427d1e84f3dd0314c0f7b2291e5b200ac8c7c3b92560405160405180910390a45050565b600061156a82611432565b6115a9576040517f08c379a00000000000000000000000000000000000000000000000000000000081526004016115a0906133e3565b60405180910390fd5b60006115b483610a54565b90508073ffffffffffffffffffffffffffffffffffffffff168473ffffffffffffffffffffffffffffffffffffffff16148061162357508373ffffffffffffffffffffffffffffffffffffffff1661160b8461061a565b73ffffffffffffffffffffffffffffffffffffffff16145b8061163457506116338185611061565b5b91505092915050565b8273ffffffffffffffffffffffffffffffffffffffff1661165d82610a54565b73ffffffffffffffffffffffffffffffffffffffff16146116b3576040517f08c379a00000000000000000000000000000000000000000000000000000000081526004016116aa90613363565b60405180910390fd5b600073ffffffffffffffffffffffffffffffffffffffff168273ffffffffffffffffffffffffffffffffffffffff161415611723576040517f08c379a000000000000000000000000000000000000000000000000000000000815260040161171a906133a3565b60405180910390fd5b61172e838383611df9565b6117396000826114a6565b6001600360008573ffffffffffffffffffffffffffffffffffffffff1673ffffffffffffffffffffffffffffffffffffffff1681526020019081526020016000206000828254611789919061372f565b925050819055506001600360008473ffffffffffffffffffffffffffffffffffffffff1673ffffffffffffffffffffffffffffffffffffffff16815260200190815260200160002060008282546117e091906136a8565b92505081905550816002600083815260200190815260200160002060006101000a81548173ffffffffffffffffffffffffffffffffffffffff021916908373ffffffffffffffffffffffffffffffffffffffff160217905550808273ffffffffffffffffffffffffffffffffffffffff168473ffffffffffffffffffffffffffffffffffffffff167fddf252ad1be2c89b69c2b068fc378daa952ba7f163c4a11628f55a4df523b3ef60405160405180910390a461189f838383611e09565b505050565b6118be828260405180602001604052806000815250611e0e565b5050565b6000600b60009054906101000a900473ffffffffffffffffffffffffffffffffffffffff16905081600b60006101000a81548173ffffffffffffffffffffffffffffffffffffffff021916908373ffffffffffffffffffffffffffffffffffffffff1602179055508173ffffffffffffffffffffffffffffffffffffffff168173ffffffffffffffffffffffffffffffffffffffff167f8be0079c531659141344cd1fd0a4f28419497f9722a3daafe3b4186f6b6457e060405160405180910390a35050565b8173ffffffffffffffffffffffffffffffffffffffff168373ffffffffffffffffffffffffffffffffffffffff1614156119f7576040517f08c379a00000000000000000000000000000000000000000000000000000000081526004016119ee906133c3565b60405180910390fd5b80600560008573ffffffffffffffffffffffffffffffffffffffff1673ffffffffffffffffffffffffffffffffffffffff16815260200190815260200160002060008473ffffffffffffffffffffffffffffffffffffffff1673ffffffffffffffffffffffffffffffffffffffff16815260200190815260200160002060006101000a81548160ff0219169083151502179055508173ffffffffffffffffffffffffffffffffffffffff168373ffffffffffffffffffffffffffffffffffffffff167f17307eab39ab6107e8899845ad3d59bd9653f200f220920489ca2b5937696c3183604051611ae891906132c6565b60405180910390a3505050565b611b0084848461163d565b611b0c84848484611e69565b611b4b576040517f08c379a0000000000000000000000000000000000000000000000000000000008152600401611b4290613323565b60405180910390fd5b50505050565b6060611b5c82611432565b611b9b576040517f08c379a0000000000000000000000000000000000000000000000000000000008152600401611b92906134c3565b60405180910390fd5b6000600660008481526020019081526020016000208054611bbb90613819565b80601f0160208091040260200160405190810160405280929190818152602001828054611be790613819565b8015611c345780601f10611c0957610100808354040283529160200191611c34565b820191906000526020600020905b815481529060010190602001808311611c1757829003601f168201915b505050505090506000611c45612000565b9050600081511415611c5b578192505050611c9e565b600082511115611c90578082604051602001611c7892919061323b565b60405160208183030381529060405292505050611c9e565b611c9984612017565b925050505b919050565b611cac82611432565b611ceb576040517f08c379a0000000000000000000000000000000000000000000000000000000008152600401611ce290613483565b60405180910390fd5b80600660008481526020019081526020016000209080519060200190611d12929190612963565b505050565b60007f80ac58cd000000000000000000000000000000000000000000000000000000007bffffffffffffffffffffffffffffffffffffffffffffffffffffffff1916827bffffffffffffffffffffffffffffffffffffffffffffffffffffffff19161480611de257507f5b5e139f000000000000000000000000000000000000000000000000000000007bffffffffffffffffffffffffffffffffffffffffffffffffffffffff1916827bffffffffffffffffffffffffffffffffffffffffffffffffffffffff1916145b80611df25750611df1826120be565b5b9050919050565b611e04838383612128565b505050565b505050565b611e18838361223c565b611e256000848484611e69565b611e64576040517f08c379a0000000000000000000000000000000000000000000000000000000008152600401611e5b90613323565b60405180910390fd5b505050565b6000611e8a8473ffffffffffffffffffffffffffffffffffffffff16612416565b15611ff3578373ffffffffffffffffffffffffffffffffffffffff1663150b7a02611eb361149e565b8786866040518563ffffffff1660e01b8152600401611ed5949392919061327a565b602060405180830381600087803b158015611eef57600080fd5b505af1925050508015611f2057506040513d601f19601f82011682018060405250810190611f1d9190612d63565b60015b611fa3573d8060008114611f50576040519150601f19603f3d011682016040523d82523d6000602084013e611f55565b606091505b50600081511415611f9b576040517f08c379a0000000000000000000000000000000000000000000000000000000008152600401611f9290613323565b60405180910390fd5b805181602001fd5b63150b7a0260e01b7bffffffffffffffffffffffffffffffffffffffffffffffffffffffff1916817bffffffffffffffffffffffffffffffffffffffffffffffffffffffff191614915050611ff8565b600190505b949350505050565b606060405180602001604052806000815250905090565b606061202282611432565b612061576040517f08c379a000000000000000000000000000000000000000000000000000000000815260040161205890613523565b60405180910390fd5b600061206b612000565b9050600081511161208b57604051806020016040528060008152506120b6565b8061209584612439565b6040516020016120a692919061323b565b6040516020818303038152906040525b915050919050565b60007f01ffc9a7000000000000000000000000000000000000000000000000000000007bffffffffffffffffffffffffffffffffffffffffffffffffffffffff1916827bffffffffffffffffffffffffffffffffffffffffffffffffffffffff1916149050919050565b6121338383836125e6565b600073ffffffffffffffffffffffffffffffffffffffff168373ffffffffffffffffffffffffffffffffffffffff16141561217657612171816125eb565b6121b5565b8173ffffffffffffffffffffffffffffffffffffffff168373ffffffffffffffffffffffffffffffffffffffff16146121b4576121b38382612634565b5b5b600073ffffffffffffffffffffffffffffffffffffffff168273ffffffffffffffffffffffffffffffffffffffff1614156121f8576121f3816127a1565b612237565b8273ffffffffffffffffffffffffffffffffffffffff168273ffffffffffffffffffffffffffffffffffffffff16146122365761223582826128e4565b5b5b505050565b600073ffffffffffffffffffffffffffffffffffffffff168273ffffffffffffffffffffffffffffffffffffffff1614156122ac576040517f08c379a00000000000000000000000000000000000000000000000000000000081526004016122a3906134a3565b60405180910390fd5b6122b581611432565b156122f5576040517f08c379a00000000000000000000000000000000000000000000000000000000081526004016122ec90613383565b60405180910390fd5b61230160008383611df9565b6001600360008473ffffffffffffffffffffffffffffffffffffffff1673ffffffffffffffffffffffffffffffffffffffff168152602001908152602001600020600082825461235191906136a8565b92505081905550816002600083815260200190815260200160002060006101000a81548173ffffffffffffffffffffffffffffffffffffffff021916908373ffffffffffffffffffffffffffffffffffffffff160217905550808273ffffffffffffffffffffffffffffffffffffffff16600073ffffffffffffffffffffffffffffffffffffffff167fddf252ad1be2c89b69c2b068fc378daa952ba7f163c4a11628f55a4df523b3ef60405160405180910390a461241260008383611e09565b5050565b6000808273ffffffffffffffffffffffffffffffffffffffff163b119050919050565b60606000821415612481576040518060400160405280600181526020017f300000000000000000000000000000000000000000000000000000000000000081525090506125e1565b600082905060005b600082146124b357808061249c9061387c565b915050600a826124ac91906136fe565b9150612489565b60008167ffffffffffffffff8111156124f5577f4e487b7100000000000000000000000000000000000000000000000000000000600052604160045260246000fd5b6040519080825280601f01601f1916602001820160405280156125275781602001600182028036833780820191505090505b5090505b600085146125da57600182612540919061372f565b9150600a8561254f91906138c5565b603061255b91906136a8565b60f81b818381518110612597577f4e487b7100000000000000000000000000000000000000000000000000000000600052603260045260246000fd5b60200101907effffffffffffffffffffffffffffffffffffffffffffffffffffffffffffff1916908160001a905350600a856125d391906136fe565b945061252b565b8093505050505b919050565b505050565b600980549050600a600083815260200190815260200160002081905550600981908060018154018082558091505060019003906000526020600020016000909190919091505550565b6000600161264184610b15565b61264b919061372f565b9050600060086000848152602001908152602001600020549050818114612730576000600760008673ffffffffffffffffffffffffffffffffffffffff1673ffffffffffffffffffffffffffffffffffffffff168152602001908152602001600020600084815260200190815260200160002054905080600760008773ffffffffffffffffffffffffffffffffffffffff1673ffffffffffffffffffffffffffffffffffffffff168152602001908152602001600020600084815260200190815260200160002081905550816008600083815260200190815260200160002081905550505b6008600084815260200190815260200160002060009055600760008573ffffffffffffffffffffffffffffffffffffffff1673ffffffffffffffffffffffffffffffffffffffff16815260200190815260200160002060008381526020019081526020016000206000905550505050565b600060016009805490506127b5919061372f565b90506000600a600084815260200190815260200160002054905060006009838154811061280b577f4e487b7100000000000000000000000000000000000000000000000000000000600052603260045260246000fd5b906000526020600020015490508060098381548110612853577f4e487b7100000000000000000000000000000000000000000000000000000000600052603260045260246000fd5b906000526020600020018190555081600a600083815260200190815260200160002081905550600a60008581526020019081526020016000206000905560098054806128c8577f4e487b7100000000000000000000000000000000000000000000000000000000600052603160045260246000fd5b6001900381819060005260206000200160009055905550505050565b60006128ef83610b15565b905081600760008573ffffffffffffffffffffffffffffffffffffffff1673ffffffffffffffffffffffffffffffffffffffff168152602001908152602001600020600083815260200190815260200160002081905550806008600084815260200190815260200160002081905550505050565b82805461296f90613819565b90600052602060002090601f01602090048101928261299157600085556129d8565b82601f106129aa57805160ff19168380011785556129d8565b828001600101855582156129d8579182015b828111156129d75782518255916020019190600101906129bc565b5b5090506129e591906129e9565b5090565b5b80821115612a025760008160009055506001016129ea565b5090565b6000612a19612a14846135e3565b6135be565b905082815260208101848484011115612a3157600080fd5b612a3c8482856137d7565b509392505050565b6000612a57612a5284613614565b6135be565b905082815260208101848484011115612a6f57600080fd5b612a7a8482856137d7565b509392505050565b600081359050612a9181613fa6565b92915050565b600081359050612aa681613fbd565b92915050565b600081359050612abb81613fd4565b92915050565b600081519050612ad081613fd4565b92915050565b600082601f830112612ae757600080fd5b8135612af7848260208601612a06565b91505092915050565b600082601f830112612b1157600080fd5b8135612b21848260208601612a44565b91505092915050565b600081359050612b3981613feb565b92915050565b600060208284031215612b5157600080fd5b6000612b5f84828501612a82565b91505092915050565b60008060408385031215612b7b57600080fd5b6000612b8985828601612a82565b9250506020612b9a85828601612a82565b9150509250929050565b600080600060608486031215612bb957600080fd5b6000612bc786828701612a82565b9350506020612bd886828701612a82565b9250506040612be986828701612b2a565b9150509250925092565b60008060008060808587031215612c0957600080fd5b6000612c1787828801612a82565b9450506020612c2887828801612a82565b9350506040612c3987828801612b2a565b925050606085013567ffffffffffffffff811115612c5657600080fd5b612c6287828801612ad6565b91505092959194509250565b60008060408385031215612c8157600080fd5b6000612c8f85828601612a82565b9250506020612ca085828601612a97565b9150509250929050565b60008060408385031215612cbd57600080fd5b6000612ccb85828601612a82565b925050602083013567ffffffffffffffff811115612ce857600080fd5b612cf485828601612b00565b9150509250929050565b60008060408385031215612d1157600080fd5b6000612d1f85828601612a82565b9250506020612d3085828601612b2a565b9150509250929050565b600060208284031215612d4c57600080fd5b6000612d5a84828501612aac565b91505092915050565b600060208284031215612d7557600080fd5b6000612d8384828501612ac1565b91505092915050565b600060208284031215612d9e57600080fd5b600082013567ffffffffffffffff811115612db857600080fd5b612dc484828501612b00565b91505092915050565b600060208284031215612ddf57600080fd5b6000612ded84828501612b2a565b91505092915050565b612dff81613763565b82525050565b612e0e81613775565b82525050565b6000612e1f8261365a565b612e298185613670565b9350612e398185602086016137e6565b612e42816139b2565b840191505092915050565b60008154612e5a81613819565b612e648186613681565b94506001821660008114612e7f5760018114612e9057612ec3565b60ff19831686528186019350612ec3565b612e9985613645565b60005b83811015612ebb57815481890152600182019150602081019050612e9c565b838801955050505b50505092915050565b6000612ed782613665565b612ee1818561368c565b9350612ef18185602086016137e6565b612efa816139b2565b840191505092915050565b6000612f1082613665565b612f1a818561369d565b9350612f2a8185602086016137e6565b80840191505092915050565b6000612f43602b8361368c565b9150612f4e826139c3565b604082019050919050565b6000612f6660328361368c565b9150612f7182613a12565b604082019050919050565b6000612f8960268361368c565b9150612f9482613a61565b604082019050919050565b6000612fac60258361368c565b9150612fb782613ab0565b604082019050919050565b6000612fcf601c8361368c565b9150612fda82613aff565b602082019050919050565b6000612ff260248361368c565b9150612ffd82613b28565b604082019050919050565b600061301560198361368c565b915061302082613b77565b602082019050919050565b6000613038602c8361368c565b915061304382613ba0565b604082019050919050565b600061305b60388361368c565b915061306682613bef565b604082019050919050565b600061307e60268361368c565b915061308982613c3e565b604082019050919050565b60006130a1602a8361368c565b91506130ac82613c8d565b604082019050919050565b60006130c460298361368c565b91506130cf82613cdc565b604082019050919050565b60006130e7602e8361368c565b91506130f282613d2b565b604082019050919050565b600061310a60208361368c565b915061311582613d7a565b602082019050919050565b600061312d60318361368c565b915061313882613da3565b604082019050919050565b6000613150602c8361368c565b915061315b82613df2565b604082019050919050565b600061317360208361368c565b915061317e82613e41565b602082019050919050565b6000613196602f8361368c565b91506131a182613e6a565b604082019050919050565b60006131b960218361368c565b91506131c482613eb9565b604082019050919050565b60006131dc60318361368c565b91506131e782613f08565b604082019050919050565b60006131ff602c8361368c565b915061320a82613f57565b604082019050919050565b61321e816137cd565b82525050565b60006132308284612e4d565b915081905092915050565b60006132478285612f05565b91506132538284612f05565b91508190509392505050565b60006020820190506132746000830184612df6565b92915050565b600060808201905061328f6000830187612df6565b61329c6020830186612df6565b6132a96040830185613215565b81810360608301526132bb8184612e14565b905095945050505050565b60006020820190506132db6000830184612e05565b92915050565b600060208201905081810360008301526132fb8184612ecc565b905092915050565b6000602082019050818103600083015261331c81612f36565b9050919050565b6000602082019050818103600083015261333c81612f59565b9050919050565b6000602082019050818103600083015261335c81612f7c565b9050919050565b6000602082019050818103600083015261337c81612f9f565b9050919050565b6000602082019050818103600083015261339c81612fc2565b9050919050565b600060208201905081810360008301526133bc81612fe5565b9050919050565b600060208201905081810360008301526133dc81613008565b9050919050565b600060208201905081810360008301526133fc8161302b565b9050919050565b6000602082019050818103600083015261341c8161304e565b9050919050565b6000602082019050818103600083015261343c81613071565b9050919050565b6000602082019050818103600083015261345c81613094565b9050919050565b6000602082019050818103600083015261347c816130b7565b9050919050565b6000602082019050818103600083015261349c816130da565b9050919050565b600060208201905081810360008301526134bc816130fd565b9050919050565b600060208201905081810360008301526134dc81613120565b9050919050565b600060208201905081810360008301526134fc81613143565b9050919050565b6000602082019050818103600083015261351c81613166565b9050919050565b6000602082019050818103600083015261353c81613189565b9050919050565b6000602082019050818103600083015261355c816131ac565b9050919050565b6000602082019050818103600083015261357c816131cf565b9050919050565b6000602082019050818103600083015261359c816131f2565b9050919050565b60006020820190506135b86000830184613215565b92915050565b60006135c86135d9565b90506135d4828261384b565b919050565b6000604051905090565b600067ffffffffffffffff8211156135fe576135fd613983565b5b613607826139b2565b9050602081019050919050565b600067ffffffffffffffff82111561362f5761362e613983565b5b613638826139b2565b9050602081019050919050565b60008190508160005260206000209050919050565b600081519050919050565b600081519050919050565b600082825260208201905092915050565b600081905092915050565b600082825260208201905092915050565b600081905092915050565b60006136b3826137cd565b91506136be836137cd565b9250827fffffffffffffffffffffffffffffffffffffffffffffffffffffffffffffffff038211156136f3576136f26138f6565b5b828201905092915050565b6000613709826137cd565b9150613714836137cd565b92508261372457613723613925565b5b828204905092915050565b600061373a826137cd565b9150613745836137cd565b925082821015613758576137576138f6565b5b828203905092915050565b600061376e826137ad565b9050919050565b60008115159050919050565b60007fffffffff0000000000000000000000000000000000000000000000000000000082169050919050565b600073ffffffffffffffffffffffffffffffffffffffff82169050919050565b6000819050919050565b82818337600083830152505050565b60005b838110156138045780820151818401526020810190506137e9565b83811115613813576000848401525b50505050565b6000600282049050600182168061383157607f821691505b6020821081141561384557613844613954565b5b50919050565b613854826139b2565b810181811067ffffffffffffffff8211171561387357613872613983565b5b80604052505050565b6000613887826137cd565b91507fffffffffffffffffffffffffffffffffffffffffffffffffffffffffffffffff8214156138ba576138b96138f6565b5b600182019050919050565b60006138d0826137cd565b91506138db836137cd565b9250826138eb576138ea613925565b5b828206905092915050565b7f4e487b7100000000000000000000000000000000000000000000000000000000600052601160045260246000fd5b7f4e487b7100000000000000000000000000000000000000000000000000000000600052601260045260246000fd5b7f4e487b7100000000000000000000000000000000000000000000000000000000600052602260045260246000fd5b7f4e487b7100000000000000000000000000000000000000000000000000000000600052604160045260246000fd5b6000601f19601f8301169050919050565b7f455243373231456e756d657261626c653a206f776e657220696e646578206f7560008201527f74206f6620626f756e6473000000000000000000000000000000000000000000602082015250565b7f4552433732313a207472616e7366657220746f206e6f6e20455243373231526560008201527f63656976657220696d706c656d656e7465720000000000000000000000000000602082015250565b7f4f776e61626c653a206e6577206f776e657220697320746865207a65726f206160008201527f6464726573730000000000000000000000000000000000000000000000000000602082015250565b7f4552433732313a207472616e736665722066726f6d20696e636f72726563742060008201527f6f776e6572000000000000000000000000000000000000000000000000000000602082015250565b7f4552433732313a20746f6b656e20616c7265616479206d696e74656400000000600082015250565b7f4552433732313a207472616e7366657220746f20746865207a65726f2061646460008201527f7265737300000000000000000000000000000000000000000000000000000000602082015250565b7f4552433732313a20617070726f766520746f2063616c6c657200000000000000600082015250565b7f4552433732313a206f70657261746f7220717565727920666f72206e6f6e657860008201527f697374656e7420746f6b656e0000000000000000000000000000000000000000602082015250565b7f4552433732313a20617070726f76652063616c6c6572206973206e6f74206f7760008201527f6e6572206e6f7220617070726f76656420666f7220616c6c0000000000000000602082015250565b7f4f6e6c792070726f64756374696f6e2063616e20637265617465207472616e7360008201527f616374696f6e0000000000000000000000000000000000000000000000000000602082015250565b7f4552433732313a2062616c616e636520717565727920666f7220746865207a6560008201527f726f206164647265737300000000000000000000000000000000000000000000602082015250565b7f4552433732313a206f776e657220717565727920666f72206e6f6e657869737460008201527f656e7420746f6b656e0000000000000000000000000000000000000000000000602082015250565b7f45524337323155524953746f726167653a2055524920736574206f66206e6f6e60008201527f6578697374656e7420746f6b656e000000000000000000000000000000000000602082015250565b7f4552433732313a206d696e7420746f20746865207a65726f2061646472657373600082015250565b7f45524337323155524953746f726167653a2055524920717565727920666f722060008201527f6e6f6e6578697374656e7420746f6b656e000000000000000000000000000000602082015250565b7f4552433732313a20617070726f76656420717565727920666f72206e6f6e657860008201527f697374656e7420746f6b656e0000000000000000000000000000000000000000602082015250565b7f4f776e61626c653a2063616c6c6572206973206e6f7420746865206f776e6572600082015250565b7f4552433732314d657461646174613a2055524920717565727920666f72206e6f60008201527f6e6578697374656e7420746f6b656e0000000000000000000000000000000000602082015250565b7f4552433732313a20617070726f76616c20746f2063757272656e74206f776e6560008201527f7200000000000000000000000000000000000000000000000000000000000000602082015250565b7f4552433732313a207472616e736665722063616c6c6572206973206e6f74206f60008201527f776e6572206e6f7220617070726f766564000000000000000000000000000000602082015250565b7f455243373231456e756d657261626c653a20676c6f62616c20696e646578206f60008201527f7574206f6620626f756e64730000000000000000000000000000000000000000602082015250565b613faf81613763565b8114613fba57600080fd5b50565b613fc681613775565b8114613fd157600080fd5b50565b613fdd81613781565b8114613fe857600080fd5b50565b613ff4816137cd565b8114613fff57600080fd5b5056fea2646970667358221220f62c68a3f241017cfb0e1167697e689894c96933399b8714089995acfb3adb5064736f6c63430008040033",
  "devdoc": {
    "kind": "dev",
    "methods": {
      "approve(address,uint256)": {
        "details": "See {IERC721-approve}."
      },
      "balanceOf(address)": {
        "details": "See {IERC721-balanceOf}."
      },
      "getApproved(uint256)": {
        "details": "See {IERC721-getApproved}."
      },
      "isApprovedForAll(address,address)": {
        "details": "See {IERC721-isApprovedForAll}."
      },
      "name()": {
        "details": "See {IERC721Metadata-name}."
      },
      "owner()": {
        "details": "Returns the address of the current owner."
      },
      "ownerOf(uint256)": {
        "details": "See {IERC721-ownerOf}."
      },
      "renounceOwnership()": {
        "details": "Leaves the contract without owner. It will not be possible to call `onlyOwner` functions anymore. Can only be called by the current owner. NOTE: Renouncing ownership will leave the contract without an owner, thereby removing any functionality that is only available to the owner."
      },
      "safeTransferFrom(address,address,uint256)": {
        "details": "See {IERC721-safeTransferFrom}."
      },
      "safeTransferFrom(address,address,uint256,bytes)": {
        "details": "See {IERC721-safeTransferFrom}."
      },
      "setApprovalForAll(address,bool)": {
        "details": "See {IERC721-setApprovalForAll}."
      },
      "symbol()": {
        "details": "See {IERC721Metadata-symbol}."
      },
      "tokenByIndex(uint256)": {
        "details": "See {IERC721Enumerable-tokenByIndex}."
      },
      "tokenOfOwnerByIndex(address,uint256)": {
        "details": "See {IERC721Enumerable-tokenOfOwnerByIndex}."
      },
      "totalSupply()": {
        "details": "See {IERC721Enumerable-totalSupply}."
      },
      "transferFrom(address,address,uint256)": {
        "details": "See {IERC721-transferFrom}."
      },
      "transferOwnership(address)": {
        "details": "Transfers ownership of the contract to a new account (`newOwner`). Can only be called by the current owner."
      }
    },
    "version": 1
  },
  "userdoc": {
    "kind": "user",
    "methods": {},
    "version": 1
  },
  "storageLayout": {
    "storage": [
      {
        "astId": 170,
        "contract": "contracts/CarboToken.sol:CarboToken",
        "label": "_name",
        "offset": 0,
        "slot": "0",
        "type": "t_string_storage"
      },
      {
        "astId": 172,
        "contract": "contracts/CarboToken.sol:CarboToken",
        "label": "_symbol",
        "offset": 0,
        "slot": "1",
        "type": "t_string_storage"
      },
      {
        "astId": 176,
        "contract": "contracts/CarboToken.sol:CarboToken",
        "label": "_owners",
        "offset": 0,
        "slot": "2",
        "type": "t_mapping(t_uint256,t_address)"
      },
      {
        "astId": 180,
        "contract": "contracts/CarboToken.sol:CarboToken",
        "label": "_balances",
        "offset": 0,
        "slot": "3",
        "type": "t_mapping(t_address,t_uint256)"
      },
      {
        "astId": 184,
        "contract": "contracts/CarboToken.sol:CarboToken",
        "label": "_tokenApprovals",
        "offset": 0,
        "slot": "4",
        "type": "t_mapping(t_uint256,t_address)"
      },
      {
        "astId": 190,
        "contract": "contracts/CarboToken.sol:CarboToken",
        "label": "_operatorApprovals",
        "offset": 0,
        "slot": "5",
        "type": "t_mapping(t_address,t_mapping(t_address,t_bool))"
      },
      {
        "astId": 1495,
        "contract": "contracts/CarboToken.sol:CarboToken",
        "label": "_tokenURIs",
        "offset": 0,
        "slot": "6",
        "type": "t_mapping(t_uint256,t_string_storage)"
      },
      {
        "astId": 1159,
        "contract": "contracts/CarboToken.sol:CarboToken",
        "label": "_ownedTokens",
        "offset": 0,
        "slot": "7",
        "type": "t_mapping(t_address,t_mapping(t_uint256,t_uint256))"
      },
      {
        "astId": 1163,
        "contract": "contracts/CarboToken.sol:CarboToken",
        "label": "_ownedTokensIndex",
        "offset": 0,
        "slot": "8",
        "type": "t_mapping(t_uint256,t_uint256)"
      },
      {
        "astId": 1166,
        "contract": "contracts/CarboToken.sol:CarboToken",
        "label": "_allTokens",
        "offset": 0,
        "slot": "9",
        "type": "t_array(t_uint256)dyn_storage"
      },
      {
        "astId": 1170,
        "contract": "contracts/CarboToken.sol:CarboToken",
        "label": "_allTokensIndex",
        "offset": 0,
        "slot": "10",
        "type": "t_mapping(t_uint256,t_uint256)"
      },
      {
        "astId": 7,
        "contract": "contracts/CarboToken.sol:CarboToken",
        "label": "_owner",
        "offset": 0,
        "slot": "11",
        "type": "t_address"
      },
      {
        "astId": 2240,
        "contract": "contracts/CarboToken.sol:CarboToken",
        "label": "_burnAddress",
        "offset": 0,
        "slot": "12",
        "type": "t_address"
      },
      {
        "astId": 2244,
        "contract": "contracts/CarboToken.sol:CarboToken",
        "label": "_parties",
        "offset": 0,
        "slot": "13",
        "type": "t_mapping(t_address,t_string_storage)"
      },
      {
        "astId": 2254,
        "contract": "contracts/CarboToken.sol:CarboToken",
        "label": "products",
        "offset": 0,
        "slot": "14",
        "type": "t_mapping(t_uint256,t_struct(Product)2249_storage)"
      },
      {
        "astId": 2257,
        "contract": "contracts/CarboToken.sol:CarboToken",
        "label": "productCount",
        "offset": 0,
        "slot": "15",
        "type": "t_uint256"
      },
      {
        "astId": 2260,
        "contract": "contracts/CarboToken.sol:CarboToken",
        "label": "transactionCount",
        "offset": 0,
        "slot": "16",
        "type": "t_uint256"
      }
    ],
    "types": {
      "t_address": {
        "encoding": "inplace",
        "label": "address",
        "numberOfBytes": "20"
      },
      "t_array(t_uint256)dyn_storage": {
        "base": "t_uint256",
        "encoding": "dynamic_array",
        "label": "uint256[]",
        "numberOfBytes": "32"
      },
      "t_bool": {
        "encoding": "inplace",
        "label": "bool",
        "numberOfBytes": "1"
      },
      "t_mapping(t_address,t_bool)": {
        "encoding": "mapping",
        "key": "t_address",
        "label": "mapping(address => bool)",
        "numberOfBytes": "32",
        "value": "t_bool"
      },
      "t_mapping(t_address,t_mapping(t_address,t_bool))": {
        "encoding": "mapping",
        "key": "t_address",
        "label": "mapping(address => mapping(address => bool))",
        "numberOfBytes": "32",
        "value": "t_mapping(t_address,t_bool)"
      },
      "t_mapping(t_address,t_mapping(t_uint256,t_uint256))": {
        "encoding": "mapping",
        "key": "t_address",
        "label": "mapping(address => mapping(uint256 => uint256))",
        "numberOfBytes": "32",
        "value": "t_mapping(t_uint256,t_uint256)"
      },
      "t_mapping(t_address,t_string_storage)": {
        "encoding": "mapping",
        "key": "t_address",
        "label": "mapping(address => string)",
        "numberOfBytes": "32",
        "value": "t_string_storage"
      },
      "t_mapping(t_address,t_uint256)": {
        "encoding": "mapping",
        "key": "t_address",
        "label": "mapping(address => uint256)",
        "numberOfBytes": "32",
        "value": "t_uint256"
      },
      "t_mapping(t_uint256,t_address)": {
        "encoding": "mapping",
        "key": "t_uint256",
        "label": "mapping(uint256 => address)",
        "numberOfBytes": "32",
        "value": "t_address"
      },
      "t_mapping(t_uint256,t_string_storage)": {
        "encoding": "mapping",
        "key": "t_uint256",
        "label": "mapping(uint256 => string)",
        "numberOfBytes": "32",
        "value": "t_string_storage"
      },
      "t_mapping(t_uint256,t_struct(Product)2249_storage)": {
        "encoding": "mapping",
        "key": "t_uint256",
        "label": "mapping(uint256 => struct CarboToken.Product)",
        "numberOfBytes": "32",
        "value": "t_struct(Product)2249_storage"
      },
      "t_mapping(t_uint256,t_uint256)": {
        "encoding": "mapping",
        "key": "t_uint256",
        "label": "mapping(uint256 => uint256)",
        "numberOfBytes": "32",
        "value": "t_uint256"
      },
      "t_string_storage": {
        "encoding": "bytes",
        "label": "string",
        "numberOfBytes": "32"
      },
      "t_struct(Product)2249_storage": {
        "encoding": "inplace",
        "label": "struct CarboToken.Product",
        "members": [
          {
            "astId": 2246,
            "contract": "contracts/CarboToken.sol:CarboToken",
            "label": "id",
            "offset": 0,
            "slot": "0",
            "type": "t_uint256"
          },
          {
            "astId": 2248,
            "contract": "contracts/CarboToken.sol:CarboToken",
            "label": "name",
            "offset": 0,
            "slot": "1",
            "type": "t_string_storage"
          }
        ],
        "numberOfBytes": "64"
      },
      "t_uint256": {
        "encoding": "inplace",
        "label": "uint256",
        "numberOfBytes": "32"
      }
    }
  }
}