{
  "address": "0x2B9E935dFF162Fc112121cC74A43D0051E8e0b58",
  "abi": [
    {
      "inputs": [
        {
          "internalType": "string",
          "name": "merchantName",
          "type": "string"
        }
      ],
      "stateMutability": "nonpayable",
      "type": "constructor"
    },
    {
      "anonymous": false,
      "inputs": [
        {
          "indexed": true,
          "internalType": "address",
          "name": "owner",
          "type": "address"
        },
        {
          "indexed": true,
          "internalType": "address",
          "name": "approved",
          "type": "address"
        },
        {
          "indexed": true,
          "internalType": "uint256",
          "name": "tokenId",
          "type": "uint256"
        }
      ],
      "name": "Approval",
      "type": "event"
    },
    {
      "anonymous": false,
      "inputs": [
        {
          "indexed": true,
          "internalType": "address",
          "name": "owner",
          "type": "address"
        },
        {
          "indexed": true,
          "internalType": "address",
          "name": "operator",
          "type": "address"
        },
        {
          "indexed": false,
          "internalType": "bool",
          "name": "approved",
          "type": "bool"
        }
      ],
      "name": "ApprovalForAll",
      "type": "event"
    },
    {
      "anonymous": false,
      "inputs": [
        {
          "indexed": true,
          "internalType": "address",
          "name": "previousOwner",
          "type": "address"
        },
        {
          "indexed": true,
          "internalType": "address",
          "name": "newOwner",
          "type": "address"
        }
      ],
      "name": "OwnershipTransferred",
      "type": "event"
    },
    {
      "anonymous": false,
      "inputs": [
        {
          "indexed": true,
          "internalType": "address",
          "name": "from",
          "type": "address"
        },
        {
          "indexed": true,
          "internalType": "address",
          "name": "to",
          "type": "address"
        },
        {
          "indexed": true,
          "internalType": "uint256",
          "name": "tokenId",
          "type": "uint256"
        }
      ],
      "name": "Transfer",
      "type": "event"
    },
    {
      "inputs": [],
      "name": "_burnAddress",
      "outputs": [
        {
          "internalType": "address",
          "name": "",
          "type": "address"
        }
      ],
      "stateMutability": "view",
      "type": "function"
    },
    {
      "inputs": [],
      "name": "_merchantAddress",
      "outputs": [
        {
          "internalType": "address",
          "name": "",
          "type": "address"
        }
      ],
      "stateMutability": "view",
      "type": "function"
    },
    {
      "inputs": [],
      "name": "_merchantName",
      "outputs": [
        {
          "internalType": "string",
          "name": "",
          "type": "string"
        }
      ],
      "stateMutability": "view",
      "type": "function"
    },
    {
      "inputs": [
        {
          "internalType": "address",
          "name": "_address",
          "type": "address"
        },
        {
          "internalType": "string",
          "name": "_type",
          "type": "string"
        }
      ],
      "name": "addParty",
      "outputs": [],
      "stateMutability": "nonpayable",
      "type": "function"
    },
    {
      "inputs": [
        {
          "internalType": "string",
          "name": "productName",
          "type": "string"
        }
      ],
      "name": "addProducts",
      "outputs": [],
      "stateMutability": "nonpayable",
      "type": "function"
    },
    {
      "inputs": [
        {
          "internalType": "address",
          "name": "to",
          "type": "address"
        },
        {
          "internalType": "uint256",
          "name": "tokenId",
          "type": "uint256"
        }
      ],
      "name": "approve",
      "outputs": [],
      "stateMutability": "nonpayable",
      "type": "function"
    },
    {
      "inputs": [
        {
          "internalType": "address",
          "name": "owner",
          "type": "address"
        }
      ],
      "name": "balanceOf",
      "outputs": [
        {
          "internalType": "uint256",
          "name": "",
          "type": "uint256"
        }
      ],
      "stateMutability": "view",
      "type": "function"
    },
    {
      "inputs": [
        {
          "internalType": "address",
          "name": "_nextParty",
          "type": "address"
        },
        {
          "internalType": "string",
          "name": "tokenUri",
          "type": "string"
        }
      ],
      "name": "createTransaction",
      "outputs": [
        {
          "internalType": "uint256",
          "name": "tokenID",
          "type": "uint256"
        }
      ],
      "stateMutability": "nonpayable",
      "type": "function"
    },
    {
      "inputs": [
        {
          "internalType": "uint256",
          "name": "tokenId",
          "type": "uint256"
        }
      ],
      "name": "getApproved",
      "outputs": [
        {
          "internalType": "address",
          "name": "",
          "type": "address"
        }
      ],
      "stateMutability": "view",
      "type": "function"
    },
    {
      "inputs": [
        {
          "internalType": "uint256",
          "name": "tokenID",
          "type": "uint256"
        }
      ],
      "name": "holderBurn",
      "outputs": [
        {
          "internalType": "string",
          "name": "message",
          "type": "string"
        }
      ],
      "stateMutability": "nonpayable",
      "type": "function"
    },
    {
      "inputs": [
        {
          "internalType": "address",
          "name": "_nextParty",
          "type": "address"
        },
        {
          "internalType": "uint256",
          "name": "tokenID",
          "type": "uint256"
        }
      ],
      "name": "holderSign",
      "outputs": [
        {
          "internalType": "string",
          "name": "message",
          "type": "string"
        }
      ],
      "stateMutability": "nonpayable",
      "type": "function"
    },
    {
      "inputs": [
        {
          "internalType": "address",
          "name": "owner",
          "type": "address"
        },
        {
          "internalType": "address",
          "name": "operator",
          "type": "address"
        }
      ],
      "name": "isApprovedForAll",
      "outputs": [
        {
          "internalType": "bool",
          "name": "",
          "type": "bool"
        }
      ],
      "stateMutability": "view",
      "type": "function"
    },
    {
      "inputs": [
        {
          "internalType": "address",
          "name": "_to",
          "type": "address"
        }
      ],
      "name": "mint",
      "outputs": [],
      "stateMutability": "nonpayable",
      "type": "function"
    },
    {
      "inputs": [],
      "name": "name",
      "outputs": [
        {
          "internalType": "string",
          "name": "",
          "type": "string"
        }
      ],
      "stateMutability": "view",
      "type": "function"
    },
    {
      "inputs": [],
      "name": "owner",
      "outputs": [
        {
          "internalType": "address",
          "name": "",
          "type": "address"
        }
      ],
      "stateMutability": "view",
      "type": "function"
    },
    {
      "inputs": [
        {
          "internalType": "uint256",
          "name": "tokenId",
          "type": "uint256"
        }
      ],
      "name": "ownerOf",
      "outputs": [
        {
          "internalType": "address",
          "name": "",
          "type": "address"
        }
      ],
      "stateMutability": "view",
      "type": "function"
    },
    {
      "inputs": [],
      "name": "renounceOwnership",
      "outputs": [],
      "stateMutability": "nonpayable",
      "type": "function"
    },
    {
      "inputs": [
        {
          "internalType": "address",
          "name": "from",
          "type": "address"
        },
        {
          "internalType": "address",
          "name": "to",
          "type": "address"
        },
        {
          "internalType": "uint256",
          "name": "tokenId",
          "type": "uint256"
        }
      ],
      "name": "safeTransferFrom",
      "outputs": [],
      "stateMutability": "nonpayable",
      "type": "function"
    },
    {
      "inputs": [
        {
          "internalType": "address",
          "name": "from",
          "type": "address"
        },
        {
          "internalType": "address",
          "name": "to",
          "type": "address"
        },
        {
          "internalType": "uint256",
          "name": "tokenId",
          "type": "uint256"
        },
        {
          "internalType": "bytes",
          "name": "_data",
          "type": "bytes"
        }
      ],
      "name": "safeTransferFrom",
      "outputs": [],
      "stateMutability": "nonpayable",
      "type": "function"
    },
    {
      "inputs": [
        {
          "internalType": "address",
          "name": "operator",
          "type": "address"
        },
        {
          "internalType": "bool",
          "name": "approved",
          "type": "bool"
        }
      ],
      "name": "setApprovalForAll",
      "outputs": [],
      "stateMutability": "nonpayable",
      "type": "function"
    },
    {
      "inputs": [
        {
          "internalType": "bytes4",
          "name": "interfaceId",
          "type": "bytes4"
        }
      ],
      "name": "supportsInterface",
      "outputs": [
        {
          "internalType": "bool",
          "name": "",
          "type": "bool"
        }
      ],
      "stateMutability": "view",
      "type": "function"
    },
    {
      "inputs": [],
      "name": "symbol",
      "outputs": [
        {
          "internalType": "string",
          "name": "",
          "type": "string"
        }
      ],
      "stateMutability": "view",
      "type": "function"
    },
    {
      "inputs": [
        {
          "internalType": "uint256",
          "name": "index",
          "type": "uint256"
        }
      ],
      "name": "tokenByIndex",
      "outputs": [
        {
          "internalType": "uint256",
          "name": "",
          "type": "uint256"
        }
      ],
      "stateMutability": "view",
      "type": "function"
    },
    {
      "inputs": [
        {
          "internalType": "address",
          "name": "owner",
          "type": "address"
        },
        {
          "internalType": "uint256",
          "name": "index",
          "type": "uint256"
        }
      ],
      "name": "tokenOfOwnerByIndex",
      "outputs": [
        {
          "internalType": "uint256",
          "name": "",
          "type": "uint256"
        }
      ],
      "stateMutability": "view",
      "type": "function"
    },
    {
      "inputs": [
        {
          "internalType": "uint256",
          "name": "tokenId",
          "type": "uint256"
        }
      ],
      "name": "tokenURI",
      "outputs": [
        {
          "internalType": "string",
          "name": "",
          "type": "string"
        }
      ],
      "stateMutability": "view",
      "type": "function"
    },
    {
      "inputs": [],
      "name": "totalSupply",
      "outputs": [
        {
          "internalType": "uint256",
          "name": "",
          "type": "uint256"
        }
      ],
      "stateMutability": "view",
      "type": "function"
    },
    {
      "inputs": [
        {
          "internalType": "address",
          "name": "from",
          "type": "address"
        },
        {
          "internalType": "address",
          "name": "to",
          "type": "address"
        },
        {
          "internalType": "uint256",
          "name": "tokenId",
          "type": "uint256"
        }
      ],
      "name": "transferFrom",
      "outputs": [],
      "stateMutability": "nonpayable",
      "type": "function"
    },
    {
      "inputs": [
        {
          "internalType": "address",
          "name": "newOwner",
          "type": "address"
        }
      ],
      "name": "transferOwnership",
      "outputs": [],
      "stateMutability": "nonpayable",
      "type": "function"
    }
  ],
  "transactionHash": "0x8d6378350a749b3706cfbb9e2131bab40dc913e7938efe9e50209471d891881a",
  "args": [
    "FairPrice"
  ],
  "numDeployments": 22,
  "solcInputHash": "4589ce0956496e4d467786b0a6bb9723",
  "bytecode": "0x6080604052738d891cffaec8dd6e571b717872db8095541110b2600d60006101000a81548173ffffffffffffffffffffffffffffffffffffffff021916908373ffffffffffffffffffffffffffffffffffffffff160217905550600060125560006013553480156200007057600080fd5b50604051620046a5380380620046a58339818101604052810190620000969190620003f7565b6040518060400160405280600a81526020017f436172626f546f6b656e000000000000000000000000000000000000000000008152506040518060400160405280600581526020017f434152424f00000000000000000000000000000000000000000000000000000081525081600090805190602001906200011a929190620002d5565b50806001908051906020019062000133929190620002d5565b505050620001566200014a6200020760201b60201c565b6200020f60201b60201c565b6001600c81905550600081511415620001a6576040517f08c379a00000000000000000000000000000000000000000000000000000000081526004016200019d9062000463565b60405180910390fd5b80600f9080519060200190620001be929190620002d5565b5033600e60006101000a81548173ffffffffffffffffffffffffffffffffffffffff021916908373ffffffffffffffffffffffffffffffffffffffff160217905550506200062f565b600033905090565b6000600b60009054906101000a900473ffffffffffffffffffffffffffffffffffffffff16905081600b60006101000a81548173ffffffffffffffffffffffffffffffffffffffff021916908373ffffffffffffffffffffffffffffffffffffffff1602179055508173ffffffffffffffffffffffffffffffffffffffff168173ffffffffffffffffffffffffffffffffffffffff167f8be0079c531659141344cd1fd0a4f28419497f9722a3daafe3b4186f6b6457e060405160405180910390a35050565b828054620002e3906200052b565b90600052602060002090601f01602090048101928262000307576000855562000353565b82601f106200032257805160ff191683800117855562000353565b8280016001018555821562000353579182015b828111156200035257825182559160200191906001019062000335565b5b50905062000362919062000366565b5090565b5b808211156200038157600081600090555060010162000367565b5090565b60006200039c6200039684620004ae565b62000485565b905082815260208101848484011115620003b557600080fd5b620003c2848285620004f5565b509392505050565b600082601f830112620003dc57600080fd5b8151620003ee84826020860162000385565b91505092915050565b6000602082840312156200040a57600080fd5b600082015167ffffffffffffffff8111156200042557600080fd5b6200043384828501620003ca565b91505092915050565b60006200044b601e83620004e4565b9150620004588262000606565b602082019050919050565b600060208201905081810360008301526200047e816200043c565b9050919050565b600062000491620004a4565b90506200049f828262000561565b919050565b6000604051905090565b600067ffffffffffffffff821115620004cc57620004cb620005c6565b5b620004d782620005f5565b9050602081019050919050565b600082825260208201905092915050565b60005b8381101562000515578082015181840152602081019050620004f8565b8381111562000525576000848401525b50505050565b600060028204905060018216806200054457607f821691505b602082108114156200055b576200055a62000597565b5b50919050565b6200056c82620005f5565b810181811067ffffffffffffffff821117156200058e576200058d620005c6565b5b80604052505050565b7f4e487b7100000000000000000000000000000000000000000000000000000000600052602260045260246000fd5b7f4e487b7100000000000000000000000000000000000000000000000000000000600052604160045260246000fd5b6000601f19601f8301169050919050565b7f4d65726368616e74206e616d652063616e6e6f7420626520626c616e6b210000600082015250565b614066806200063f6000396000f3fe608060405234801561001057600080fd5b50600436106101c45760003560e01c80638da5cb5b116100f9578063c87b56dd11610097578063e985e9c511610071578063e985e9c514610517578063eb2fadf014610547578063f2fde38b14610577578063fd3c430314610593576101c4565b8063c87b56dd14610499578063d1910de9146104c9578063d5b21447146104e7576101c4565b8063a22cb465116100d3578063a22cb46514610427578063aaf23b2d14610443578063b88d4fde1461045f578063bd3900c01461047b576101c4565b80638da5cb5b146103bb5780638e2f2ab7146103d957806395d89b4114610409576101c4565b80632f745c59116101665780636352211e116101405780636352211e146103355780636a6278421461036557806370a0823114610381578063715018a6146103b1576101c4565b80632f745c59146102b957806342842e0e146102e95780634f6ccce714610305576101c4565b8063095ea7b3116101a2578063095ea7b31461024757806318160ddd1461026357806321405cd11461028157806323b872dd1461029d576101c4565b806301ffc9a7146101c957806306fdde03146101f9578063081812fc14610217575b600080fd5b6101e360048036038101906101de9190612d68565b6105b1565b6040516101f091906132f4565b60405180910390f35b6102016105c3565b60405161020e919061330f565b60405180910390f35b610231600480360381019061022c9190612dfb565b610655565b60405161023e919061328d565b60405180910390f35b610261600480360381019061025c9190612d2c565b6106da565b005b61026b6107f2565b60405161027891906135d1565b60405180910390f35b61029b60048036038101906102969190612cd8565b6107ff565b005b6102b760048036038101906102b29190612bd2565b6108d3565b005b6102d360048036038101906102ce9190612d2c565b610933565b6040516102e091906135d1565b60405180910390f35b61030360048036038101906102fe9190612bd2565b6109d8565b005b61031f600480360381019061031a9190612dfb565b6109f8565b60405161032c91906135d1565b60405180910390f35b61034f600480360381019061034a9190612dfb565b610a8f565b60405161035c919061328d565b60405180910390f35b61037f600480360381019061037a9190612b6d565b610b41565b005b61039b60048036038101906103969190612b6d565b610b4f565b6040516103a891906135d1565b60405180910390f35b6103b9610c07565b005b6103c3610c8f565b6040516103d0919061328d565b60405180910390f35b6103f360048036038101906103ee9190612dfb565b610cb9565b604051610400919061330f565b60405180910390f35b610411610da3565b60405161041e919061330f565b60405180910390f35b610441600480360381019061043c9190612c9c565b610e35565b005b61045d60048036038101906104589190612dba565b610e4b565b005b61047960048036038101906104749190612c21565b610f38565b005b610483610f9a565b604051610490919061328d565b60405180910390f35b6104b360048036038101906104ae9190612dfb565b610fc0565b6040516104c0919061330f565b60405180910390f35b6104d1610fd2565b6040516104de919061328d565b60405180910390f35b61050160048036038101906104fc9190612d2c565b610ff8565b60405161050e919061330f565b60405180910390f35b610531600480360381019061052c9190612b96565b6110c1565b60405161053e91906132f4565b60405180910390f35b610561600480360381019061055c9190612cd8565b611155565b60405161056e91906135d1565b60405180910390f35b610591600480360381019061058c9190612b6d565b611260565b005b61059b611358565b6040516105a8919061330f565b60405180910390f35b60006105bc826113e6565b9050919050565b6060600080546105d290613847565b80601f01602080910402602001604051908101604052809291908181526020018280546105fe90613847565b801561064b5780601f106106205761010080835404028352916020019161064b565b820191906000526020600020905b81548152906001019060200180831161062e57829003601f168201915b5050505050905090565b600061066082611460565b61069f576040517f08c379a000000000000000000000000000000000000000000000000000000000815260040161069690613511565b60405180910390fd5b6004600083815260200190815260200160002060009054906101000a900473ffffffffffffffffffffffffffffffffffffffff169050919050565b60006106e582610a8f565b90508073ffffffffffffffffffffffffffffffffffffffff168373ffffffffffffffffffffffffffffffffffffffff161415610756576040517f08c379a000000000000000000000000000000000000000000000000000000000815260040161074d90613571565b60405180910390fd5b8073ffffffffffffffffffffffffffffffffffffffff166107756114cc565b73ffffffffffffffffffffffffffffffffffffffff1614806107a457506107a38161079e6114cc565b6110c1565b5b6107e3576040517f08c379a00000000000000000000000000000000000000000000000000000000081526004016107da90613431565b60405180910390fd5b6107ed83836114d4565b505050565b6000600980549050905090565b6108076114cc565b73ffffffffffffffffffffffffffffffffffffffff16610825610c8f565b73ffffffffffffffffffffffffffffffffffffffff161461087b576040517f08c379a000000000000000000000000000000000000000000000000000000000815260040161087290613531565b60405180910390fd5b80601060008473ffffffffffffffffffffffffffffffffffffffff1673ffffffffffffffffffffffffffffffffffffffff16815260200190815260200160002090805190602001906108ce929190612991565b505050565b6108e46108de6114cc565b8261158d565b610923576040517f08c379a000000000000000000000000000000000000000000000000000000000815260040161091a90613591565b60405180910390fd5b61092e83838361166b565b505050565b600061093e83610b4f565b821061097f576040517f08c379a000000000000000000000000000000000000000000000000000000000815260040161097690613331565b60405180910390fd5b600760008473ffffffffffffffffffffffffffffffffffffffff1673ffffffffffffffffffffffffffffffffffffffff168152602001908152602001600020600083815260200190815260200160002054905092915050565b6109f383838360405180602001604052806000815250610f38565b505050565b6000610a026107f2565b8210610a43576040517f08c379a0000000000000000000000000000000000000000000000000000000008152600401610a3a906135b1565b60405180910390fd5b60098281548110610a7d577f4e487b7100000000000000000000000000000000000000000000000000000000600052603260045260246000fd5b90600052602060002001549050919050565b6000806002600084815260200190815260200160002060009054906101000a900473ffffffffffffffffffffffffffffffffffffffff169050600073ffffffffffffffffffffffffffffffffffffffff168173ffffffffffffffffffffffffffffffffffffffff161415610b38576040517f08c379a0000000000000000000000000000000000000000000000000000000008152600401610b2f90613491565b60405180910390fd5b80915050919050565b610b4c8160016118d2565b50565b60008073ffffffffffffffffffffffffffffffffffffffff168273ffffffffffffffffffffffffffffffffffffffff161415610bc0576040517f08c379a0000000000000000000000000000000000000000000000000000000008152600401610bb790613471565b60405180910390fd5b600360008373ffffffffffffffffffffffffffffffffffffffff1673ffffffffffffffffffffffffffffffffffffffff168152602001908152602001600020549050919050565b610c0f6114cc565b73ffffffffffffffffffffffffffffffffffffffff16610c2d610c8f565b73ffffffffffffffffffffffffffffffffffffffff1614610c83576040517f08c379a0000000000000000000000000000000000000000000000000000000008152600401610c7a90613531565b60405180910390fd5b610c8d60006118f0565b565b6000600b60009054906101000a900473ffffffffffffffffffffffffffffffffffffffff16905090565b60606000610cc633610b4f565b905060005b81811015610d635783610cde3383610933565b1415610d5057610d1133600d60009054906101000a900473ffffffffffffffffffffffffffffffffffffffff16866109d8565b6040518060400160405280601481526020017f5375636365737366756c6c79206275726e65642100000000000000000000000081525092505050610d9e565b8080610d5b906138aa565b915050610ccb565b506040518060400160405280601081526020017f546f6b656e206e6f7420666f756e6421000000000000000000000000000000008152509150505b919050565b606060018054610db290613847565b80601f0160208091040260200160405190810160405280929190818152602001828054610dde90613847565b8015610e2b5780601f10610e0057610100808354040283529160200191610e2b565b820191906000526020600020905b815481529060010190602001808311610e0e57829003601f168201915b5050505050905090565b610e47610e406114cc565b83836119b6565b5050565b610e536114cc565b73ffffffffffffffffffffffffffffffffffffffff16610e71610c8f565b73ffffffffffffffffffffffffffffffffffffffff1614610ec7576040517f08c379a0000000000000000000000000000000000000000000000000000000008152600401610ebe90613531565b60405180910390fd5b6040518060400160405280601254815260200182815250601160006012548152602001908152602001600020600082015181600001556020820151816001019080519060200190610f19929190612991565b5090505060126000815480929190610f30906138aa565b919050555050565b610f49610f436114cc565b8361158d565b610f88576040517f08c379a0000000000000000000000000000000000000000000000000000000008152600401610f7f90613591565b60405180910390fd5b610f9484848484611b23565b50505050565b600d60009054906101000a900473ffffffffffffffffffffffffffffffffffffffff1681565b6060610fcb82611b7f565b9050919050565b600e60009054906101000a900473ffffffffffffffffffffffffffffffffffffffff1681565b6060600061100533610b4f565b905060005b81811015611080578361101d3383610933565b141561106d5761102e3386866109d8565b6040518060400160405280601981526020017f5375636365737366756c6c79207472616e736665727265642100000000000000815250925050506110bb565b8080611078906138aa565b91505061100a565b506040518060400160405280601081526020017f546f6b656e206e6f7420666f756e6421000000000000000000000000000000008152509150505b92915050565b6000600560008473ffffffffffffffffffffffffffffffffffffffff1673ffffffffffffffffffffffffffffffffffffffff16815260200190815260200160002060008373ffffffffffffffffffffffffffffffffffffffff1673ffffffffffffffffffffffffffffffffffffffff16815260200190815260200160002060009054906101000a900460ff16905092915050565b60006040518060400160405280600a81526020017f50726f64756374696f6e0000000000000000000000000000000000000000000081525080519060200120601060003373ffffffffffffffffffffffffffffffffffffffff1673ffffffffffffffffffffffffffffffffffffffff1681526020019081526020016000206040516111e09190613252565b604051809103902014611228576040517f08c379a000000000000000000000000000000000000000000000000000000000815260040161121f90613451565b60405180910390fd5b61123183610b41565b60136000815480929190611244906138aa565b919050555061125560135483611cd1565b601354905092915050565b6112686114cc565b73ffffffffffffffffffffffffffffffffffffffff16611286610c8f565b73ffffffffffffffffffffffffffffffffffffffff16146112dc576040517f08c379a00000000000000000000000000000000000000000000000000000000081526004016112d390613531565b60405180910390fd5b600073ffffffffffffffffffffffffffffffffffffffff168173ffffffffffffffffffffffffffffffffffffffff16141561134c576040517f08c379a000000000000000000000000000000000000000000000000000000000815260040161134390613371565b60405180910390fd5b611355816118f0565b50565b600f805461136590613847565b80601f016020809104026020016040519081016040528092919081815260200182805461139190613847565b80156113de5780601f106113b3576101008083540402835291602001916113de565b820191906000526020600020905b8154815290600101906020018083116113c157829003601f168201915b505050505081565b60007f780e9d63000000000000000000000000000000000000000000000000000000007bffffffffffffffffffffffffffffffffffffffffffffffffffffffff1916827bffffffffffffffffffffffffffffffffffffffffffffffffffffffff19161480611459575061145882611d45565b5b9050919050565b60008073ffffffffffffffffffffffffffffffffffffffff166002600084815260200190815260200160002060009054906101000a900473ffffffffffffffffffffffffffffffffffffffff1673ffffffffffffffffffffffffffffffffffffffff1614159050919050565b600033905090565b816004600083815260200190815260200160002060006101000a81548173ffffffffffffffffffffffffffffffffffffffff021916908373ffffffffffffffffffffffffffffffffffffffff160217905550808273ffffffffffffffffffffffffffffffffffffffff1661154783610a8f565b73ffffffffffffffffffffffffffffffffffffffff167f8c5be1e5ebec7d5bd14f71427d1e84f3dd0314c0f7b2291e5b200ac8c7c3b92560405160405180910390a45050565b600061159882611460565b6115d7576040517f08c379a00000000000000000000000000000000000000000000000000000000081526004016115ce90613411565b60405180910390fd5b60006115e283610a8f565b90508073ffffffffffffffffffffffffffffffffffffffff168473ffffffffffffffffffffffffffffffffffffffff16148061165157508373ffffffffffffffffffffffffffffffffffffffff1661163984610655565b73ffffffffffffffffffffffffffffffffffffffff16145b80611662575061166181856110c1565b5b91505092915050565b8273ffffffffffffffffffffffffffffffffffffffff1661168b82610a8f565b73ffffffffffffffffffffffffffffffffffffffff16146116e1576040517f08c379a00000000000000000000000000000000000000000000000000000000081526004016116d890613391565b60405180910390fd5b600073ffffffffffffffffffffffffffffffffffffffff168273ffffffffffffffffffffffffffffffffffffffff161415611751576040517f08c379a0000000000000000000000000000000000000000000000000000000008152600401611748906133d1565b60405180910390fd5b61175c838383611e27565b6117676000826114d4565b6001600360008573ffffffffffffffffffffffffffffffffffffffff1673ffffffffffffffffffffffffffffffffffffffff16815260200190815260200160002060008282546117b7919061375d565b925050819055506001600360008473ffffffffffffffffffffffffffffffffffffffff1673ffffffffffffffffffffffffffffffffffffffff168152602001908152602001600020600082825461180e91906136d6565b92505081905550816002600083815260200190815260200160002060006101000a81548173ffffffffffffffffffffffffffffffffffffffff021916908373ffffffffffffffffffffffffffffffffffffffff160217905550808273ffffffffffffffffffffffffffffffffffffffff168473ffffffffffffffffffffffffffffffffffffffff167fddf252ad1be2c89b69c2b068fc378daa952ba7f163c4a11628f55a4df523b3ef60405160405180910390a46118cd838383611e37565b505050565b6118ec828260405180602001604052806000815250611e3c565b5050565b6000600b60009054906101000a900473ffffffffffffffffffffffffffffffffffffffff16905081600b60006101000a81548173ffffffffffffffffffffffffffffffffffffffff021916908373ffffffffffffffffffffffffffffffffffffffff1602179055508173ffffffffffffffffffffffffffffffffffffffff168173ffffffffffffffffffffffffffffffffffffffff167f8be0079c531659141344cd1fd0a4f28419497f9722a3daafe3b4186f6b6457e060405160405180910390a35050565b8173ffffffffffffffffffffffffffffffffffffffff168373ffffffffffffffffffffffffffffffffffffffff161415611a25576040517f08c379a0000000000000000000000000000000000000000000000000000000008152600401611a1c906133f1565b60405180910390fd5b80600560008573ffffffffffffffffffffffffffffffffffffffff1673ffffffffffffffffffffffffffffffffffffffff16815260200190815260200160002060008473ffffffffffffffffffffffffffffffffffffffff1673ffffffffffffffffffffffffffffffffffffffff16815260200190815260200160002060006101000a81548160ff0219169083151502179055508173ffffffffffffffffffffffffffffffffffffffff168373ffffffffffffffffffffffffffffffffffffffff167f17307eab39ab6107e8899845ad3d59bd9653f200f220920489ca2b5937696c3183604051611b1691906132f4565b60405180910390a3505050565b611b2e84848461166b565b611b3a84848484611e97565b611b79576040517f08c379a0000000000000000000000000000000000000000000000000000000008152600401611b7090613351565b60405180910390fd5b50505050565b6060611b8a82611460565b611bc9576040517f08c379a0000000000000000000000000000000000000000000000000000000008152600401611bc0906134f1565b60405180910390fd5b6000600660008481526020019081526020016000208054611be990613847565b80601f0160208091040260200160405190810160405280929190818152602001828054611c1590613847565b8015611c625780601f10611c3757610100808354040283529160200191611c62565b820191906000526020600020905b815481529060010190602001808311611c4557829003601f168201915b505050505090506000611c7361202e565b9050600081511415611c89578192505050611ccc565b600082511115611cbe578082604051602001611ca6929190613269565b60405160208183030381529060405292505050611ccc565b611cc784612045565b925050505b919050565b611cda82611460565b611d19576040517f08c379a0000000000000000000000000000000000000000000000000000000008152600401611d10906134b1565b60405180910390fd5b80600660008481526020019081526020016000209080519060200190611d40929190612991565b505050565b60007f80ac58cd000000000000000000000000000000000000000000000000000000007bffffffffffffffffffffffffffffffffffffffffffffffffffffffff1916827bffffffffffffffffffffffffffffffffffffffffffffffffffffffff19161480611e1057507f5b5e139f000000000000000000000000000000000000000000000000000000007bffffffffffffffffffffffffffffffffffffffffffffffffffffffff1916827bffffffffffffffffffffffffffffffffffffffffffffffffffffffff1916145b80611e205750611e1f826120ec565b5b9050919050565b611e32838383612156565b505050565b505050565b611e46838361226a565b611e536000848484611e97565b611e92576040517f08c379a0000000000000000000000000000000000000000000000000000000008152600401611e8990613351565b60405180910390fd5b505050565b6000611eb88473ffffffffffffffffffffffffffffffffffffffff16612444565b15612021578373ffffffffffffffffffffffffffffffffffffffff1663150b7a02611ee16114cc565b8786866040518563ffffffff1660e01b8152600401611f0394939291906132a8565b602060405180830381600087803b158015611f1d57600080fd5b505af1925050508015611f4e57506040513d601f19601f82011682018060405250810190611f4b9190612d91565b60015b611fd1573d8060008114611f7e576040519150601f19603f3d011682016040523d82523d6000602084013e611f83565b606091505b50600081511415611fc9576040517f08c379a0000000000000000000000000000000000000000000000000000000008152600401611fc090613351565b60405180910390fd5b805181602001fd5b63150b7a0260e01b7bffffffffffffffffffffffffffffffffffffffffffffffffffffffff1916817bffffffffffffffffffffffffffffffffffffffffffffffffffffffff191614915050612026565b600190505b949350505050565b606060405180602001604052806000815250905090565b606061205082611460565b61208f576040517f08c379a000000000000000000000000000000000000000000000000000000000815260040161208690613551565b60405180910390fd5b600061209961202e565b905060008151116120b957604051806020016040528060008152506120e4565b806120c384612467565b6040516020016120d4929190613269565b6040516020818303038152906040525b915050919050565b60007f01ffc9a7000000000000000000000000000000000000000000000000000000007bffffffffffffffffffffffffffffffffffffffffffffffffffffffff1916827bffffffffffffffffffffffffffffffffffffffffffffffffffffffff1916149050919050565b612161838383612614565b600073ffffffffffffffffffffffffffffffffffffffff168373ffffffffffffffffffffffffffffffffffffffff1614156121a45761219f81612619565b6121e3565b8173ffffffffffffffffffffffffffffffffffffffff168373ffffffffffffffffffffffffffffffffffffffff16146121e2576121e18382612662565b5b5b600073ffffffffffffffffffffffffffffffffffffffff168273ffffffffffffffffffffffffffffffffffffffff16141561222657612221816127cf565b612265565b8273ffffffffffffffffffffffffffffffffffffffff168273ffffffffffffffffffffffffffffffffffffffff1614612264576122638282612912565b5b5b505050565b600073ffffffffffffffffffffffffffffffffffffffff168273ffffffffffffffffffffffffffffffffffffffff1614156122da576040517f08c379a00000000000000000000000000000000000000000000000000000000081526004016122d1906134d1565b60405180910390fd5b6122e381611460565b15612323576040517f08c379a000000000000000000000000000000000000000000000000000000000815260040161231a906133b1565b60405180910390fd5b61232f60008383611e27565b6001600360008473ffffffffffffffffffffffffffffffffffffffff1673ffffffffffffffffffffffffffffffffffffffff168152602001908152602001600020600082825461237f91906136d6565b92505081905550816002600083815260200190815260200160002060006101000a81548173ffffffffffffffffffffffffffffffffffffffff021916908373ffffffffffffffffffffffffffffffffffffffff160217905550808273ffffffffffffffffffffffffffffffffffffffff16600073ffffffffffffffffffffffffffffffffffffffff167fddf252ad1be2c89b69c2b068fc378daa952ba7f163c4a11628f55a4df523b3ef60405160405180910390a461244060008383611e37565b5050565b6000808273ffffffffffffffffffffffffffffffffffffffff163b119050919050565b606060008214156124af576040518060400160405280600181526020017f3000000000000000000000000000000000000000000000000000000000000000815250905061260f565b600082905060005b600082146124e15780806124ca906138aa565b915050600a826124da919061372c565b91506124b7565b60008167ffffffffffffffff811115612523577f4e487b7100000000000000000000000000000000000000000000000000000000600052604160045260246000fd5b6040519080825280601f01601f1916602001820160405280156125555781602001600182028036833780820191505090505b5090505b600085146126085760018261256e919061375d565b9150600a8561257d91906138f3565b603061258991906136d6565b60f81b8183815181106125c5577f4e487b7100000000000000000000000000000000000000000000000000000000600052603260045260246000fd5b60200101907effffffffffffffffffffffffffffffffffffffffffffffffffffffffffffff1916908160001a905350600a85612601919061372c565b9450612559565b8093505050505b919050565b505050565b600980549050600a600083815260200190815260200160002081905550600981908060018154018082558091505060019003906000526020600020016000909190919091505550565b6000600161266f84610b4f565b612679919061375d565b905060006008600084815260200190815260200160002054905081811461275e576000600760008673ffffffffffffffffffffffffffffffffffffffff1673ffffffffffffffffffffffffffffffffffffffff168152602001908152602001600020600084815260200190815260200160002054905080600760008773ffffffffffffffffffffffffffffffffffffffff1673ffffffffffffffffffffffffffffffffffffffff168152602001908152602001600020600084815260200190815260200160002081905550816008600083815260200190815260200160002081905550505b6008600084815260200190815260200160002060009055600760008573ffffffffffffffffffffffffffffffffffffffff1673ffffffffffffffffffffffffffffffffffffffff16815260200190815260200160002060008381526020019081526020016000206000905550505050565b600060016009805490506127e3919061375d565b90506000600a6000848152602001908152602001600020549050600060098381548110612839577f4e487b7100000000000000000000000000000000000000000000000000000000600052603260045260246000fd5b906000526020600020015490508060098381548110612881577f4e487b7100000000000000000000000000000000000000000000000000000000600052603260045260246000fd5b906000526020600020018190555081600a600083815260200190815260200160002081905550600a60008581526020019081526020016000206000905560098054806128f6577f4e487b7100000000000000000000000000000000000000000000000000000000600052603160045260246000fd5b6001900381819060005260206000200160009055905550505050565b600061291d83610b4f565b905081600760008573ffffffffffffffffffffffffffffffffffffffff1673ffffffffffffffffffffffffffffffffffffffff168152602001908152602001600020600083815260200190815260200160002081905550806008600084815260200190815260200160002081905550505050565b82805461299d90613847565b90600052602060002090601f0160209004810192826129bf5760008555612a06565b82601f106129d857805160ff1916838001178555612a06565b82800160010185558215612a06579182015b82811115612a055782518255916020019190600101906129ea565b5b509050612a139190612a17565b5090565b5b80821115612a30576000816000905550600101612a18565b5090565b6000612a47612a4284613611565b6135ec565b905082815260208101848484011115612a5f57600080fd5b612a6a848285613805565b509392505050565b6000612a85612a8084613642565b6135ec565b905082815260208101848484011115612a9d57600080fd5b612aa8848285613805565b509392505050565b600081359050612abf81613fd4565b92915050565b600081359050612ad481613feb565b92915050565b600081359050612ae981614002565b92915050565b600081519050612afe81614002565b92915050565b600082601f830112612b1557600080fd5b8135612b25848260208601612a34565b91505092915050565b600082601f830112612b3f57600080fd5b8135612b4f848260208601612a72565b91505092915050565b600081359050612b6781614019565b92915050565b600060208284031215612b7f57600080fd5b6000612b8d84828501612ab0565b91505092915050565b60008060408385031215612ba957600080fd5b6000612bb785828601612ab0565b9250506020612bc885828601612ab0565b9150509250929050565b600080600060608486031215612be757600080fd5b6000612bf586828701612ab0565b9350506020612c0686828701612ab0565b9250506040612c1786828701612b58565b9150509250925092565b60008060008060808587031215612c3757600080fd5b6000612c4587828801612ab0565b9450506020612c5687828801612ab0565b9350506040612c6787828801612b58565b925050606085013567ffffffffffffffff811115612c8457600080fd5b612c9087828801612b04565b91505092959194509250565b60008060408385031215612caf57600080fd5b6000612cbd85828601612ab0565b9250506020612cce85828601612ac5565b9150509250929050565b60008060408385031215612ceb57600080fd5b6000612cf985828601612ab0565b925050602083013567ffffffffffffffff811115612d1657600080fd5b612d2285828601612b2e565b9150509250929050565b60008060408385031215612d3f57600080fd5b6000612d4d85828601612ab0565b9250506020612d5e85828601612b58565b9150509250929050565b600060208284031215612d7a57600080fd5b6000612d8884828501612ada565b91505092915050565b600060208284031215612da357600080fd5b6000612db184828501612aef565b91505092915050565b600060208284031215612dcc57600080fd5b600082013567ffffffffffffffff811115612de657600080fd5b612df284828501612b2e565b91505092915050565b600060208284031215612e0d57600080fd5b6000612e1b84828501612b58565b91505092915050565b612e2d81613791565b82525050565b612e3c816137a3565b82525050565b6000612e4d82613688565b612e57818561369e565b9350612e67818560208601613814565b612e70816139e0565b840191505092915050565b60008154612e8881613847565b612e9281866136af565b94506001821660008114612ead5760018114612ebe57612ef1565b60ff19831686528186019350612ef1565b612ec785613673565b60005b83811015612ee957815481890152600182019150602081019050612eca565b838801955050505b50505092915050565b6000612f0582613693565b612f0f81856136ba565b9350612f1f818560208601613814565b612f28816139e0565b840191505092915050565b6000612f3e82613693565b612f4881856136cb565b9350612f58818560208601613814565b80840191505092915050565b6000612f71602b836136ba565b9150612f7c826139f1565b604082019050919050565b6000612f946032836136ba565b9150612f9f82613a40565b604082019050919050565b6000612fb76026836136ba565b9150612fc282613a8f565b604082019050919050565b6000612fda6025836136ba565b9150612fe582613ade565b604082019050919050565b6000612ffd601c836136ba565b915061300882613b2d565b602082019050919050565b60006130206024836136ba565b915061302b82613b56565b604082019050919050565b60006130436019836136ba565b915061304e82613ba5565b602082019050919050565b6000613066602c836136ba565b915061307182613bce565b604082019050919050565b60006130896038836136ba565b915061309482613c1d565b604082019050919050565b60006130ac6026836136ba565b91506130b782613c6c565b604082019050919050565b60006130cf602a836136ba565b91506130da82613cbb565b604082019050919050565b60006130f26029836136ba565b91506130fd82613d0a565b604082019050919050565b6000613115602e836136ba565b915061312082613d59565b604082019050919050565b60006131386020836136ba565b915061314382613da8565b602082019050919050565b600061315b6031836136ba565b915061316682613dd1565b604082019050919050565b600061317e602c836136ba565b915061318982613e20565b604082019050919050565b60006131a16020836136ba565b91506131ac82613e6f565b602082019050919050565b60006131c4602f836136ba565b91506131cf82613e98565b604082019050919050565b60006131e76021836136ba565b91506131f282613ee7565b604082019050919050565b600061320a6031836136ba565b915061321582613f36565b604082019050919050565b600061322d602c836136ba565b915061323882613f85565b604082019050919050565b61324c816137fb565b82525050565b600061325e8284612e7b565b915081905092915050565b60006132758285612f33565b91506132818284612f33565b91508190509392505050565b60006020820190506132a26000830184612e24565b92915050565b60006080820190506132bd6000830187612e24565b6132ca6020830186612e24565b6132d76040830185613243565b81810360608301526132e98184612e42565b905095945050505050565b60006020820190506133096000830184612e33565b92915050565b600060208201905081810360008301526133298184612efa565b905092915050565b6000602082019050818103600083015261334a81612f64565b9050919050565b6000602082019050818103600083015261336a81612f87565b9050919050565b6000602082019050818103600083015261338a81612faa565b9050919050565b600060208201905081810360008301526133aa81612fcd565b9050919050565b600060208201905081810360008301526133ca81612ff0565b9050919050565b600060208201905081810360008301526133ea81613013565b9050919050565b6000602082019050818103600083015261340a81613036565b9050919050565b6000602082019050818103600083015261342a81613059565b9050919050565b6000602082019050818103600083015261344a8161307c565b9050919050565b6000602082019050818103600083015261346a8161309f565b9050919050565b6000602082019050818103600083015261348a816130c2565b9050919050565b600060208201905081810360008301526134aa816130e5565b9050919050565b600060208201905081810360008301526134ca81613108565b9050919050565b600060208201905081810360008301526134ea8161312b565b9050919050565b6000602082019050818103600083015261350a8161314e565b9050919050565b6000602082019050818103600083015261352a81613171565b9050919050565b6000602082019050818103600083015261354a81613194565b9050919050565b6000602082019050818103600083015261356a816131b7565b9050919050565b6000602082019050818103600083015261358a816131da565b9050919050565b600060208201905081810360008301526135aa816131fd565b9050919050565b600060208201905081810360008301526135ca81613220565b9050919050565b60006020820190506135e66000830184613243565b92915050565b60006135f6613607565b90506136028282613879565b919050565b6000604051905090565b600067ffffffffffffffff82111561362c5761362b6139b1565b5b613635826139e0565b9050602081019050919050565b600067ffffffffffffffff82111561365d5761365c6139b1565b5b613666826139e0565b9050602081019050919050565b60008190508160005260206000209050919050565b600081519050919050565b600081519050919050565b600082825260208201905092915050565b600081905092915050565b600082825260208201905092915050565b600081905092915050565b60006136e1826137fb565b91506136ec836137fb565b9250827fffffffffffffffffffffffffffffffffffffffffffffffffffffffffffffffff0382111561372157613720613924565b5b828201905092915050565b6000613737826137fb565b9150613742836137fb565b92508261375257613751613953565b5b828204905092915050565b6000613768826137fb565b9150613773836137fb565b92508282101561378657613785613924565b5b828203905092915050565b600061379c826137db565b9050919050565b60008115159050919050565b60007fffffffff0000000000000000000000000000000000000000000000000000000082169050919050565b600073ffffffffffffffffffffffffffffffffffffffff82169050919050565b6000819050919050565b82818337600083830152505050565b60005b83811015613832578082015181840152602081019050613817565b83811115613841576000848401525b50505050565b6000600282049050600182168061385f57607f821691505b6020821081141561387357613872613982565b5b50919050565b613882826139e0565b810181811067ffffffffffffffff821117156138a1576138a06139b1565b5b80604052505050565b60006138b5826137fb565b91507fffffffffffffffffffffffffffffffffffffffffffffffffffffffffffffffff8214156138e8576138e7613924565b5b600182019050919050565b60006138fe826137fb565b9150613909836137fb565b92508261391957613918613953565b5b828206905092915050565b7f4e487b7100000000000000000000000000000000000000000000000000000000600052601160045260246000fd5b7f4e487b7100000000000000000000000000000000000000000000000000000000600052601260045260246000fd5b7f4e487b7100000000000000000000000000000000000000000000000000000000600052602260045260246000fd5b7f4e487b7100000000000000000000000000000000000000000000000000000000600052604160045260246000fd5b6000601f19601f8301169050919050565b7f455243373231456e756d657261626c653a206f776e657220696e646578206f7560008201527f74206f6620626f756e6473000000000000000000000000000000000000000000602082015250565b7f4552433732313a207472616e7366657220746f206e6f6e20455243373231526560008201527f63656976657220696d706c656d656e7465720000000000000000000000000000602082015250565b7f4f776e61626c653a206e6577206f776e657220697320746865207a65726f206160008201527f6464726573730000000000000000000000000000000000000000000000000000602082015250565b7f4552433732313a207472616e736665722066726f6d20696e636f72726563742060008201527f6f776e6572000000000000000000000000000000000000000000000000000000602082015250565b7f4552433732313a20746f6b656e20616c7265616479206d696e74656400000000600082015250565b7f4552433732313a207472616e7366657220746f20746865207a65726f2061646460008201527f7265737300000000000000000000000000000000000000000000000000000000602082015250565b7f4552433732313a20617070726f766520746f2063616c6c657200000000000000600082015250565b7f4552433732313a206f70657261746f7220717565727920666f72206e6f6e657860008201527f697374656e7420746f6b656e0000000000000000000000000000000000000000602082015250565b7f4552433732313a20617070726f76652063616c6c6572206973206e6f74206f7760008201527f6e6572206e6f7220617070726f76656420666f7220616c6c0000000000000000602082015250565b7f4f6e6c792070726f64756374696f6e2063616e20637265617465207472616e7360008201527f616374696f6e0000000000000000000000000000000000000000000000000000602082015250565b7f4552433732313a2062616c616e636520717565727920666f7220746865207a6560008201527f726f206164647265737300000000000000000000000000000000000000000000602082015250565b7f4552433732313a206f776e657220717565727920666f72206e6f6e657869737460008201527f656e7420746f6b656e0000000000000000000000000000000000000000000000602082015250565b7f45524337323155524953746f726167653a2055524920736574206f66206e6f6e60008201527f6578697374656e7420746f6b656e000000000000000000000000000000000000602082015250565b7f4552433732313a206d696e7420746f20746865207a65726f2061646472657373600082015250565b7f45524337323155524953746f726167653a2055524920717565727920666f722060008201527f6e6f6e6578697374656e7420746f6b656e000000000000000000000000000000602082015250565b7f4552433732313a20617070726f76656420717565727920666f72206e6f6e657860008201527f697374656e7420746f6b656e0000000000000000000000000000000000000000602082015250565b7f4f776e61626c653a2063616c6c6572206973206e6f7420746865206f776e6572600082015250565b7f4552433732314d657461646174613a2055524920717565727920666f72206e6f60008201527f6e6578697374656e7420746f6b656e0000000000000000000000000000000000602082015250565b7f4552433732313a20617070726f76616c20746f2063757272656e74206f776e6560008201527f7200000000000000000000000000000000000000000000000000000000000000602082015250565b7f4552433732313a207472616e736665722063616c6c6572206973206e6f74206f60008201527f776e6572206e6f7220617070726f766564000000000000000000000000000000602082015250565b7f455243373231456e756d657261626c653a20676c6f62616c20696e646578206f60008201527f7574206f6620626f756e64730000000000000000000000000000000000000000602082015250565b613fdd81613791565b8114613fe857600080fd5b50565b613ff4816137a3565b8114613fff57600080fd5b50565b61400b816137af565b811461401657600080fd5b50565b614022816137fb565b811461402d57600080fd5b5056fea2646970667358221220dc03a03ff65b964bb322f8b1235c40eed0d059445ff77e21b23192e601db8ae864736f6c63430008040033",
  "devdoc": {
    "kind": "dev",
    "methods": {
      "approve(address,uint256)": {
        "details": "See {IERC721-approve}."
      },
      "balanceOf(address)": {
        "details": "See {IERC721-balanceOf}."
      },
      "getApproved(uint256)": {
        "details": "See {IERC721-getApproved}."
      },
      "isApprovedForAll(address,address)": {
        "details": "See {IERC721-isApprovedForAll}."
      },
      "name()": {
        "details": "See {IERC721Metadata-name}."
      },
      "owner()": {
        "details": "Returns the address of the current owner."
      },
      "ownerOf(uint256)": {
        "details": "See {IERC721-ownerOf}."
      },
      "renounceOwnership()": {
        "details": "Leaves the contract without owner. It will not be possible to call `onlyOwner` functions anymore. Can only be called by the current owner. NOTE: Renouncing ownership will leave the contract without an owner, thereby removing any functionality that is only available to the owner."
      },
      "safeTransferFrom(address,address,uint256)": {
        "details": "See {IERC721-safeTransferFrom}."
      },
      "safeTransferFrom(address,address,uint256,bytes)": {
        "details": "See {IERC721-safeTransferFrom}."
      },
      "setApprovalForAll(address,bool)": {
        "details": "See {IERC721-setApprovalForAll}."
      },
      "symbol()": {
        "details": "See {IERC721Metadata-symbol}."
      },
      "tokenByIndex(uint256)": {
        "details": "See {IERC721Enumerable-tokenByIndex}."
      },
      "tokenOfOwnerByIndex(address,uint256)": {
        "details": "See {IERC721Enumerable-tokenOfOwnerByIndex}."
      },
      "totalSupply()": {
        "details": "See {IERC721Enumerable-totalSupply}."
      },
      "transferFrom(address,address,uint256)": {
        "details": "See {IERC721-transferFrom}."
      },
      "transferOwnership(address)": {
        "details": "Transfers ownership of the contract to a new account (`newOwner`). Can only be called by the current owner."
      }
    },
    "version": 1
  },
  "userdoc": {
    "kind": "user",
    "methods": {},
    "version": 1
  },
  "storageLayout": {
    "storage": [
      {
        "astId": 170,
        "contract": "contracts/CarboMerchant.sol:CarboMerchant",
        "label": "_name",
        "offset": 0,
        "slot": "0",
        "type": "t_string_storage"
      },
      {
        "astId": 172,
        "contract": "contracts/CarboMerchant.sol:CarboMerchant",
        "label": "_symbol",
        "offset": 0,
        "slot": "1",
        "type": "t_string_storage"
      },
      {
        "astId": 176,
        "contract": "contracts/CarboMerchant.sol:CarboMerchant",
        "label": "_owners",
        "offset": 0,
        "slot": "2",
        "type": "t_mapping(t_uint256,t_address)"
      },
      {
        "astId": 180,
        "contract": "contracts/CarboMerchant.sol:CarboMerchant",
        "label": "_balances",
        "offset": 0,
        "slot": "3",
        "type": "t_mapping(t_address,t_uint256)"
      },
      {
        "astId": 184,
        "contract": "contracts/CarboMerchant.sol:CarboMerchant",
        "label": "_tokenApprovals",
        "offset": 0,
        "slot": "4",
        "type": "t_mapping(t_uint256,t_address)"
      },
      {
        "astId": 190,
        "contract": "contracts/CarboMerchant.sol:CarboMerchant",
        "label": "_operatorApprovals",
        "offset": 0,
        "slot": "5",
        "type": "t_mapping(t_address,t_mapping(t_address,t_bool))"
      },
      {
        "astId": 1495,
        "contract": "contracts/CarboMerchant.sol:CarboMerchant",
        "label": "_tokenURIs",
        "offset": 0,
        "slot": "6",
        "type": "t_mapping(t_uint256,t_string_storage)"
      },
      {
        "astId": 1159,
        "contract": "contracts/CarboMerchant.sol:CarboMerchant",
        "label": "_ownedTokens",
        "offset": 0,
        "slot": "7",
        "type": "t_mapping(t_address,t_mapping(t_uint256,t_uint256))"
      },
      {
        "astId": 1163,
        "contract": "contracts/CarboMerchant.sol:CarboMerchant",
        "label": "_ownedTokensIndex",
        "offset": 0,
        "slot": "8",
        "type": "t_mapping(t_uint256,t_uint256)"
      },
      {
        "astId": 1166,
        "contract": "contracts/CarboMerchant.sol:CarboMerchant",
        "label": "_allTokens",
        "offset": 0,
        "slot": "9",
        "type": "t_array(t_uint256)dyn_storage"
      },
      {
        "astId": 1170,
        "contract": "contracts/CarboMerchant.sol:CarboMerchant",
        "label": "_allTokensIndex",
        "offset": 0,
        "slot": "10",
        "type": "t_mapping(t_uint256,t_uint256)"
      },
      {
        "astId": 7,
        "contract": "contracts/CarboMerchant.sol:CarboMerchant",
        "label": "_owner",
        "offset": 0,
        "slot": "11",
        "type": "t_address"
      },
      {
        "astId": 115,
        "contract": "contracts/CarboMerchant.sol:CarboMerchant",
        "label": "_status",
        "offset": 0,
        "slot": "12",
        "type": "t_uint256"
      },
      {
        "astId": 2242,
        "contract": "contracts/CarboMerchant.sol:CarboMerchant",
        "label": "_burnAddress",
        "offset": 0,
        "slot": "13",
        "type": "t_address"
      },
      {
        "astId": 2244,
        "contract": "contracts/CarboMerchant.sol:CarboMerchant",
        "label": "_merchantAddress",
        "offset": 0,
        "slot": "14",
        "type": "t_address"
      },
      {
        "astId": 2246,
        "contract": "contracts/CarboMerchant.sol:CarboMerchant",
        "label": "_merchantName",
        "offset": 0,
        "slot": "15",
        "type": "t_string_storage"
      },
      {
        "astId": 2250,
        "contract": "contracts/CarboMerchant.sol:CarboMerchant",
        "label": "_parties",
        "offset": 0,
        "slot": "16",
        "type": "t_mapping(t_address,t_string_storage)"
      },
      {
        "astId": 2260,
        "contract": "contracts/CarboMerchant.sol:CarboMerchant",
        "label": "products",
        "offset": 0,
        "slot": "17",
        "type": "t_mapping(t_uint256,t_struct(Product)2255_storage)"
      },
      {
        "astId": 2263,
        "contract": "contracts/CarboMerchant.sol:CarboMerchant",
        "label": "productCount",
        "offset": 0,
        "slot": "18",
        "type": "t_uint256"
      },
      {
        "astId": 2269,
        "contract": "contracts/CarboMerchant.sol:CarboMerchant",
        "label": "transactionCount",
        "offset": 0,
        "slot": "19",
        "type": "t_uint256"
      }
    ],
    "types": {
      "t_address": {
        "encoding": "inplace",
        "label": "address",
        "numberOfBytes": "20"
      },
      "t_array(t_uint256)dyn_storage": {
        "base": "t_uint256",
        "encoding": "dynamic_array",
        "label": "uint256[]",
        "numberOfBytes": "32"
      },
      "t_bool": {
        "encoding": "inplace",
        "label": "bool",
        "numberOfBytes": "1"
      },
      "t_mapping(t_address,t_bool)": {
        "encoding": "mapping",
        "key": "t_address",
        "label": "mapping(address => bool)",
        "numberOfBytes": "32",
        "value": "t_bool"
      },
      "t_mapping(t_address,t_mapping(t_address,t_bool))": {
        "encoding": "mapping",
        "key": "t_address",
        "label": "mapping(address => mapping(address => bool))",
        "numberOfBytes": "32",
        "value": "t_mapping(t_address,t_bool)"
      },
      "t_mapping(t_address,t_mapping(t_uint256,t_uint256))": {
        "encoding": "mapping",
        "key": "t_address",
        "label": "mapping(address => mapping(uint256 => uint256))",
        "numberOfBytes": "32",
        "value": "t_mapping(t_uint256,t_uint256)"
      },
      "t_mapping(t_address,t_string_storage)": {
        "encoding": "mapping",
        "key": "t_address",
        "label": "mapping(address => string)",
        "numberOfBytes": "32",
        "value": "t_string_storage"
      },
      "t_mapping(t_address,t_uint256)": {
        "encoding": "mapping",
        "key": "t_address",
        "label": "mapping(address => uint256)",
        "numberOfBytes": "32",
        "value": "t_uint256"
      },
      "t_mapping(t_uint256,t_address)": {
        "encoding": "mapping",
        "key": "t_uint256",
        "label": "mapping(uint256 => address)",
        "numberOfBytes": "32",
        "value": "t_address"
      },
      "t_mapping(t_uint256,t_string_storage)": {
        "encoding": "mapping",
        "key": "t_uint256",
        "label": "mapping(uint256 => string)",
        "numberOfBytes": "32",
        "value": "t_string_storage"
      },
      "t_mapping(t_uint256,t_struct(Product)2255_storage)": {
        "encoding": "mapping",
        "key": "t_uint256",
        "label": "mapping(uint256 => struct CarboMerchant.Product)",
        "numberOfBytes": "32",
        "value": "t_struct(Product)2255_storage"
      },
      "t_mapping(t_uint256,t_uint256)": {
        "encoding": "mapping",
        "key": "t_uint256",
        "label": "mapping(uint256 => uint256)",
        "numberOfBytes": "32",
        "value": "t_uint256"
      },
      "t_string_storage": {
        "encoding": "bytes",
        "label": "string",
        "numberOfBytes": "32"
      },
      "t_struct(Product)2255_storage": {
        "encoding": "inplace",
        "label": "struct CarboMerchant.Product",
        "members": [
          {
            "astId": 2252,
            "contract": "contracts/CarboMerchant.sol:CarboMerchant",
            "label": "id",
            "offset": 0,
            "slot": "0",
            "type": "t_uint256"
          },
          {
            "astId": 2254,
            "contract": "contracts/CarboMerchant.sol:CarboMerchant",
            "label": "name",
            "offset": 0,
            "slot": "1",
            "type": "t_string_storage"
          }
        ],
        "numberOfBytes": "64"
      },
      "t_uint256": {
        "encoding": "inplace",
        "label": "uint256",
        "numberOfBytes": "32"
      }
    }
  }
}